{
  "_format": "hh-sol-artifact-1",
  "contractName": "Estake",
  "sourceName": "contracts/Estake.sol",
  "abi": [
    {
      "anonymous": false,
      "inputs": [
        {
          "indexed": true,
          "internalType": "address",
          "name": "owner",
          "type": "address"
        },
        {
          "indexed": true,
          "internalType": "address",
          "name": "spender",
          "type": "address"
        },
        {
          "indexed": false,
          "internalType": "uint256",
          "name": "value",
          "type": "uint256"
        }
      ],
      "name": "Approval",
      "type": "event"
    },
    {
      "anonymous": false,
      "inputs": [
        {
          "indexed": false,
          "internalType": "uint8",
          "name": "version",
          "type": "uint8"
        }
      ],
      "name": "Initialized",
      "type": "event"
    },
    {
      "anonymous": false,
      "inputs": [
        {
          "indexed": false,
          "internalType": "address",
          "name": "account",
          "type": "address"
        }
      ],
      "name": "Paused",
      "type": "event"
    },
    {
      "anonymous": false,
      "inputs": [
        {
          "indexed": true,
          "internalType": "address",
          "name": "sender",
          "type": "address"
        },
        {
          "indexed": false,
          "internalType": "uint256",
          "name": "amount",
          "type": "uint256"
        }
      ],
      "name": "Submitted",
      "type": "event"
    },
    {
      "anonymous": false,
      "inputs": [
        {
          "indexed": true,
          "internalType": "address",
          "name": "from",
          "type": "address"
        },
        {
          "indexed": true,
          "internalType": "address",
          "name": "to",
          "type": "address"
        },
        {
          "indexed": false,
          "internalType": "uint256",
          "name": "value",
          "type": "uint256"
        }
      ],
      "name": "Transfer",
      "type": "event"
    },
    {
      "anonymous": false,
      "inputs": [
        {
          "indexed": false,
          "internalType": "address",
          "name": "account",
          "type": "address"
        }
      ],
      "name": "Unpaused",
      "type": "event"
    },
    {
      "inputs": [],
      "name": "DAOMULTISIG",
      "outputs": [
        {
          "internalType": "bytes32",
          "name": "",
          "type": "bytes32"
        }
      ],
      "stateMutability": "view",
      "type": "function"
    },
    {
      "inputs": [
        {
          "internalType": "address",
          "name": "owner",
          "type": "address"
        },
        {
          "internalType": "address",
          "name": "spender",
          "type": "address"
        }
      ],
      "name": "allowance",
      "outputs": [
        {
          "internalType": "uint256",
          "name": "",
          "type": "uint256"
        }
      ],
      "stateMutability": "view",
      "type": "function"
    },
    {
      "inputs": [
        {
          "internalType": "address",
          "name": "spender",
          "type": "address"
        },
        {
          "internalType": "uint256",
          "name": "amount",
          "type": "uint256"
        }
      ],
      "name": "approve",
      "outputs": [
        {
          "internalType": "bool",
          "name": "",
          "type": "bool"
        }
      ],
      "stateMutability": "nonpayable",
      "type": "function"
    },
    {
      "inputs": [
        {
          "internalType": "address",
          "name": "account",
          "type": "address"
        }
      ],
      "name": "balanceOf",
      "outputs": [
        {
          "internalType": "uint256",
          "name": "",
          "type": "uint256"
        }
      ],
      "stateMutability": "view",
      "type": "function"
    },
    {
      "inputs": [],
      "name": "decimals",
      "outputs": [
        {
          "internalType": "uint8",
          "name": "",
          "type": "uint8"
        }
      ],
      "stateMutability": "pure",
      "type": "function"
    },
    {
      "inputs": [
        {
          "internalType": "address",
          "name": "_spender",
          "type": "address"
        },
        {
          "internalType": "uint256",
          "name": "subtractedAmount",
          "type": "uint256"
        }
      ],
      "name": "decreaseAllowance",
      "outputs": [
        {
          "internalType": "bool",
          "name": "",
          "type": "bool"
        }
      ],
      "stateMutability": "nonpayable",
      "type": "function"
    },
    {
      "inputs": [
        {
          "internalType": "uint256",
          "name": "sharesAmount",
          "type": "uint256"
        }
      ],
      "name": "getPooledAvaxfromShares",
      "outputs": [
        {
          "internalType": "uint256",
          "name": "",
          "type": "uint256"
        }
      ],
      "stateMutability": "view",
      "type": "function"
    },
    {
      "inputs": [
        {
          "internalType": "uint256",
          "name": "_amountAvax",
          "type": "uint256"
        }
      ],
      "name": "getSharesFromStakedAvax",
      "outputs": [
        {
          "internalType": "uint256",
          "name": "",
          "type": "uint256"
        }
      ],
      "stateMutability": "view",
      "type": "function"
    },
    {
      "inputs": [],
      "name": "getSupply",
      "outputs": [
        {
          "internalType": "uint256",
          "name": "",
          "type": "uint256"
        }
      ],
      "stateMutability": "view",
      "type": "function"
    },
    {
      "inputs": [],
      "name": "getTotalAvaxPooled",
      "outputs": [
        {
          "internalType": "uint256",
          "name": "",
          "type": "uint256"
        }
      ],
      "stateMutability": "view",
      "type": "function"
    },
    {
      "inputs": [],
      "name": "getTotalShares",
      "outputs": [
        {
          "internalType": "uint256",
          "name": "",
          "type": "uint256"
        }
      ],
      "stateMutability": "view",
      "type": "function"
    },
    {
      "inputs": [],
      "name": "getTotalSupply",
      "outputs": [
        {
          "internalType": "uint256",
          "name": "",
          "type": "uint256"
        }
      ],
      "stateMutability": "view",
      "type": "function"
    },
    {
      "inputs": [
        {
          "internalType": "address",
          "name": "_spender",
          "type": "address"
        },
        {
          "internalType": "uint256",
          "name": "addedAmount",
          "type": "uint256"
        }
      ],
      "name": "increaseAllowance",
      "outputs": [
        {
          "internalType": "bool",
          "name": "",
          "type": "bool"
        }
      ],
      "stateMutability": "nonpayable",
      "type": "function"
    },
    {
      "inputs": [],
      "name": "name",
      "outputs": [
        {
          "internalType": "string",
          "name": "",
          "type": "string"
        }
      ],
      "stateMutability": "pure",
      "type": "function"
    },
    {
      "inputs": [],
      "name": "paused",
      "outputs": [
        {
          "internalType": "bool",
          "name": "",
          "type": "bool"
        }
      ],
      "stateMutability": "view",
      "type": "function"
    },
    {
      "inputs": [
        {
          "internalType": "address",
          "name": "account",
          "type": "address"
        }
      ],
      "name": "sharesOf",
      "outputs": [
        {
          "internalType": "uint256",
          "name": "",
          "type": "uint256"
        }
      ],
      "stateMutability": "view",
      "type": "function"
    },
    {
      "inputs": [],
      "name": "stake",
      "outputs": [
        {
          "internalType": "uint256",
          "name": "",
          "type": "uint256"
        }
      ],
      "stateMutability": "payable",
      "type": "function"
    },
    {
      "inputs": [],
      "name": "symbol",
      "outputs": [
        {
          "internalType": "string",
          "name": "",
          "type": "string"
        }
      ],
      "stateMutability": "pure",
      "type": "function"
    },
    {
      "inputs": [],
      "name": "totalSupply",
      "outputs": [
        {
          "internalType": "uint256",
          "name": "",
          "type": "uint256"
        }
      ],
      "stateMutability": "view",
      "type": "function"
    },
    {
      "inputs": [
        {
          "internalType": "address",
          "name": "reciver",
          "type": "address"
        },
        {
          "internalType": "uint256",
          "name": "amount",
          "type": "uint256"
        }
      ],
      "name": "transfer",
      "outputs": [
        {
          "internalType": "bool",
          "name": "",
          "type": "bool"
        }
      ],
      "stateMutability": "nonpayable",
      "type": "function"
    },
    {
      "inputs": [
        {
          "internalType": "address",
          "name": "_sender",
          "type": "address"
        },
        {
          "internalType": "address",
          "name": "reciver",
          "type": "address"
        },
        {
          "internalType": "uint256",
          "name": "amount",
          "type": "uint256"
        }
      ],
      "name": "transferFrom",
      "outputs": [
        {
          "internalType": "bool",
          "name": "",
          "type": "bool"
        }
      ],
      "stateMutability": "nonpayable",
      "type": "function"
    },
    {
      "stateMutability": "payable",
      "type": "receive"
    }
  ],
  "bytecode": "0x608060405234801561001057600080fd5b50611d3a806100206000396000f3fe60806040526004361061012e5760003560e01c80636c9c2faf116100ab578063a9059cbb1161006f578063a9059cbb14610427578063c4e41b2214610464578063ce5da6a61461048f578063d5002f2e146104cc578063dd62ed3e146104f7578063f5eb42dc146105345761013e565b80636c9c2faf1461032c57806370a0823114610357578063840b20f91461039457806395d89b41146103bf578063a457c2d7146103ea5761013e565b8063313ce567116100f2578063313ce5671461023e57806339509351146102695780633a4b66f1146102a657806348ce74fa146102c45780635c975abb146103015761013e565b806306fdde0314610143578063095ea7b31461016e57806318160ddd146101ab57806323b872dd146101d65780632473906d146102135761013e565b3661013e5761013b610571565b50005b600080fd5b34801561014f57600080fd5b506101586105c9565b6040516101659190611726565b60405180910390f35b34801561017a57600080fd5b50610195600480360381019061019091906114b8565b610606565b6040516101a291906116f0565b60405180910390f35b3480156101b757600080fd5b506101c061061d565b6040516101cd9190611888565b60405180910390f35b3480156101e257600080fd5b506101fd60048036038101906101f89190611469565b61062c565b60405161020a91906116f0565b60405180910390f35b34801561021f57600080fd5b50610228610725565b604051610235919061170b565b60405180910390f35b34801561024a57600080fd5b50610253610749565b60405161026091906118a3565b60405180910390f35b34801561027557600080fd5b50610290600480360381019061028b91906114b8565b610752565b60405161029d91906116f0565b60405180910390f35b6102ae6107f7565b6040516102bb9190611888565b60405180910390f35b3480156102d057600080fd5b506102eb60048036038101906102e691906114f4565b610806565b6040516102f89190611888565b60405180910390f35b34801561030d57600080fd5b5061031661085b565b60405161032391906116f0565b60405180910390f35b34801561033857600080fd5b50610341610872565b60405161034e9190611888565b60405180910390f35b34801561036357600080fd5b5061037e60048036038101906103799190611404565b61087c565b60405161038b9190611888565b60405180910390f35b3480156103a057600080fd5b506103a9610896565b6040516103b69190611888565b60405180910390f35b3480156103cb57600080fd5b506103d46108a5565b6040516103e19190611726565b60405180910390f35b3480156103f657600080fd5b50610411600480360381019061040c91906114b8565b6108e2565b60405161041e91906116f0565b60405180910390f35b34801561043357600080fd5b5061044e600480360381019061044991906114b8565b6109cf565b60405161045b91906116f0565b60405180910390f35b34801561047057600080fd5b506104796109e6565b6040516104869190611888565b60405180910390f35b34801561049b57600080fd5b506104b660048036038101906104b191906114f4565b6109f5565b6040516104c39190611888565b60405180910390f35b3480156104d857600080fd5b506104e1610a4a565b6040516104ee9190611888565b60405180910390f35b34801561050357600080fd5b5061051e6004803603810190610519919061142d565b610a59565b60405161052b9190611888565b60405180910390f35b34801561054057600080fd5b5061055b60048036038101906105569190611404565b610ae0565b6040516105689190611888565b60405180910390f35b6000806000369050146105b9576040517f08c379a00000000000000000000000000000000000000000000000000000000081526004016105b090611748565b60405180910390fd5b6105c1610af2565b506001905090565b60606040518060400160405280600b81526020017f457374616b656441766178000000000000000000000000000000000000000000815250905090565b6000610613338484610bc2565b6001905092915050565b6000610627610dd5565b905090565b600080606660008673ffffffffffffffffffffffffffffffffffffffff1673ffffffffffffffffffffffffffffffffffffffff16815260200190815260200160002060003373ffffffffffffffffffffffffffffffffffffffff1673ffffffffffffffffffffffffffffffffffffffff168152602001908152602001600020549050828110156106f1576040517f08c379a00000000000000000000000000000000000000000000000000000000081526004016106e890611768565b60405180910390fd5b6106fc858585610dde565b61071985336107148685610e6190919063ffffffff16565b610bc2565b60019150509392505050565b7fe388d3b5e10c6604b751af94e4cdb6db8aebad8f87f7353b8dd89acad74a7cf081565b60006012905090565b60006107ed33846107e885606660003373ffffffffffffffffffffffffffffffffffffffff1673ffffffffffffffffffffffffffffffffffffffff16815260200190815260200160002060008973ffffffffffffffffffffffffffffffffffffffff1673ffffffffffffffffffffffffffffffffffffffff16815260200190815260200160002054610e7790919063ffffffff16565b610bc2565b6001905092915050565b6000610801610af2565b905090565b600080610811610896565b90506000811415610826576000915050610856565b61085281610844610835610a4a565b86610e8d90919063ffffffff16565b610ea390919063ffffffff16565b9150505b919050565b6000603360009054906101000a900460ff16905090565b6000606754905090565b600061088f61088a83610eb9565b6109f5565b9050919050565b60006108a0610dd5565b905090565b60606040518060400160405280600681526020017f6573417661780000000000000000000000000000000000000000000000000000815250905090565b600080606660003373ffffffffffffffffffffffffffffffffffffffff1673ffffffffffffffffffffffffffffffffffffffff16815260200190815260200160002060008573ffffffffffffffffffffffffffffffffffffffff1673ffffffffffffffffffffffffffffffffffffffff168152602001908152602001600020549050828110156109a7576040517f08c379a000000000000000000000000000000000000000000000000000000000815260040161099e90611808565b60405180910390fd5b6109c433856109bf8685610e6190919063ffffffff16565b610bc2565b600191505092915050565b60006109dc338484610dde565b6001905092915050565b60006109f0610dd5565b905090565b600080610a00610f02565b90506000811415610a15576000915050610a45565b610a4181610a33610a24610dd5565b86610e8d90919063ffffffff16565b610ea390919063ffffffff16565b9150505b919050565b6000610a54610f02565b905090565b6000606660008473ffffffffffffffffffffffffffffffffffffffff1673ffffffffffffffffffffffffffffffffffffffff16815260200190815260200160002060008373ffffffffffffffffffffffffffffffffffffffff1673ffffffffffffffffffffffffffffffffffffffff16815260200190815260200160002054905092915050565b6000610aeb82610eb9565b9050919050565b6000610afc61085b565b15610b3c576040517f08c379a0000000000000000000000000000000000000000000000000000000008152600401610b33906117c8565b60405180910390fd5b600033905060003490506000811415610b8a576040517f08c379a0000000000000000000000000000000000000000000000000000000008152600401610b8190611828565b60405180910390fd5b6000610b9582610806565b90506000811415610ba4578190505b610bae8382610f32565b50610bb983836110d6565b80935050505090565b610bca61085b565b15610c0a576040517f08c379a0000000000000000000000000000000000000000000000000000000008152600401610c01906117c8565b60405180910390fd5b600073ffffffffffffffffffffffffffffffffffffffff168373ffffffffffffffffffffffffffffffffffffffff161415610c7a576040517f08c379a0000000000000000000000000000000000000000000000000000000008152600401610c71906117e8565b60405180910390fd5b600073ffffffffffffffffffffffffffffffffffffffff168273ffffffffffffffffffffffffffffffffffffffff161415610cea576040517f08c379a0000000000000000000000000000000000000000000000000000000008152600401610ce1906117e8565b60405180910390fd5b80606660008573ffffffffffffffffffffffffffffffffffffffff1673ffffffffffffffffffffffffffffffffffffffff16815260200190815260200160002060008473ffffffffffffffffffffffffffffffffffffffff1673ffffffffffffffffffffffffffffffffffffffff168152602001908152602001600020819055508173ffffffffffffffffffffffffffffffffffffffff168373ffffffffffffffffffffffffffffffffffffffff167f8c5be1e5ebec7d5bd14f71427d1e84f3dd0314c0f7b2291e5b200ac8c7c3b92583604051610dc89190611888565b60405180910390a3505050565b60006001905090565b6000610de982610806565b9050610df6848483611128565b8273ffffffffffffffffffffffffffffffffffffffff168473ffffffffffffffffffffffffffffffffffffffff167fddf252ad1be2c89b69c2b068fc378daa952ba7f163c4a11628f55a4df523b3ef84604051610e539190611888565b60405180910390a350505050565b60008183610e6f91906119bb565b905092915050565b60008183610e8591906118da565b905092915050565b60008183610e9b9190611961565b905092915050565b60008183610eb19190611930565b905092915050565b6000606560008373ffffffffffffffffffffffffffffffffffffffff1673ffffffffffffffffffffffffffffffffffffffff168152602001908152602001600020549050919050565b6000610f2d7f3ec28447c1cd3fd5175b5414b8304ec6748559bc446468c819297870cd808f196113c8565b905090565b6000610f3c61085b565b15610f7c576040517f08c379a0000000000000000000000000000000000000000000000000000000008152600401610f73906117c8565b60405180910390fd5b600073ffffffffffffffffffffffffffffffffffffffff168373ffffffffffffffffffffffffffffffffffffffff161415610fec576040517f08c379a0000000000000000000000000000000000000000000000000000000008152600401610fe390611788565b60405180910390fd5b61100682610ff8610a4a565b610e7790919063ffffffff16565b905061103b817f3ec28447c1cd3fd5175b5414b8304ec6748559bc446468c819297870cd808f196113d390919063ffffffff16565b61108d81606560008673ffffffffffffffffffffffffffffffffffffffff1673ffffffffffffffffffffffffffffffffffffffff16815260200190815260200160002054610e7790919063ffffffff16565b606560008573ffffffffffffffffffffffffffffffffffffffff1673ffffffffffffffffffffffffffffffffffffffff1681526020019081526020016000208190555092915050565b8173ffffffffffffffffffffffffffffffffffffffff167f1439dff93e9e1f47823f730d1ac6d0e67fd98a81c2dc5e02d6b0f7d9af4edc8a8260405161111c9190611888565b60405180910390a25050565b61113061085b565b15611170576040517f08c379a0000000000000000000000000000000000000000000000000000000008152600401611167906117c8565b60405180910390fd5b600073ffffffffffffffffffffffffffffffffffffffff168373ffffffffffffffffffffffffffffffffffffffff1614156111e0576040517f08c379a00000000000000000000000000000000000000000000000000000000081526004016111d7906117a8565b60405180910390fd5b600073ffffffffffffffffffffffffffffffffffffffff168273ffffffffffffffffffffffffffffffffffffffff161415611250576040517f08c379a000000000000000000000000000000000000000000000000000000000815260040161124790611848565b60405180910390fd5b6000606560008573ffffffffffffffffffffffffffffffffffffffff1673ffffffffffffffffffffffffffffffffffffffff168152602001908152602001600020549050808211156112d7576040517f08c379a00000000000000000000000000000000000000000000000000000000081526004016112ce90611868565b60405180910390fd5b6112ea8282610e6190919063ffffffff16565b606560008673ffffffffffffffffffffffffffffffffffffffff1673ffffffffffffffffffffffffffffffffffffffff1681526020019081526020016000208190555061137f82606560008673ffffffffffffffffffffffffffffffffffffffff1673ffffffffffffffffffffffffffffffffffffffff16815260200190815260200160002054610e7790919063ffffffff16565b606560008573ffffffffffffffffffffffffffffffffffffffff1673ffffffffffffffffffffffffffffffffffffffff1681526020019081526020016000208190555050505050565b600081549050919050565b8082555050565b6000813590506113e981611cd6565b92915050565b6000813590506113fe81611ced565b92915050565b60006020828403121561141657600080fd5b6000611424848285016113da565b91505092915050565b6000806040838503121561144057600080fd5b600061144e858286016113da565b925050602061145f858286016113da565b9150509250929050565b60008060006060848603121561147e57600080fd5b600061148c868287016113da565b935050602061149d868287016113da565b92505060406114ae868287016113ef565b9150509250925092565b600080604083850312156114cb57600080fd5b60006114d9858286016113da565b92505060206114ea858286016113ef565b9150509250929050565b60006020828403121561150657600080fd5b6000611514848285016113ef565b91505092915050565b61152681611a01565b82525050565b61153581611a0d565b82525050565b6000611546826118be565b61155081856118c9565b9350611560818560208601611a4e565b61156981611adf565b840191505092915050565b6000611581600e836118c9565b915061158c82611af0565b602082019050919050565b60006115a46027836118c9565b91506115af82611b19565b604082019050919050565b60006115c7601b836118c9565b91506115d282611b68565b602082019050919050565b60006115ea6021836118c9565b91506115f582611b91565b604082019050919050565b600061160d6010836118c9565b915061161882611be0565b602082019050919050565b6000611630601d836118c9565b915061163b82611c09565b602082019050919050565b6000611653601a836118c9565b915061165e82611c32565b602082019050919050565b6000611676600f836118c9565b915061168182611c5b565b602082019050919050565b6000611699601f836118c9565b91506116a482611c84565b602082019050919050565b60006116bc6018836118c9565b91506116c782611cad565b602082019050919050565b6116db81611a37565b82525050565b6116ea81611a41565b82525050565b6000602082019050611705600083018461151d565b92915050565b6000602082019050611720600083018461152c565b92915050565b60006020820190508181036000830152611740818461153b565b905092915050565b6000602082019050818103600083015261176181611574565b9050919050565b6000602082019050818103600083015261178181611597565b9050919050565b600060208201905081810360008301526117a1816115ba565b9050919050565b600060208201905081810360008301526117c1816115dd565b9050919050565b600060208201905081810360008301526117e181611600565b9050919050565b6000602082019050818103600083015261180181611623565b9050919050565b6000602082019050818103600083015261182181611646565b9050919050565b6000602082019050818103600083015261184181611669565b9050919050565b600060208201905081810360008301526118618161168c565b9050919050565b60006020820190508181036000830152611881816116af565b9050919050565b600060208201905061189d60008301846116d2565b92915050565b60006020820190506118b860008301846116e1565b92915050565b600081519050919050565b600082825260208201905092915050565b60006118e582611a37565b91506118f083611a37565b9250827fffffffffffffffffffffffffffffffffffffffffffffffffffffffffffffffff0382111561192557611924611a81565b5b828201905092915050565b600061193b82611a37565b915061194683611a37565b92508261195657611955611ab0565b5b828204905092915050565b600061196c82611a37565b915061197783611a37565b9250817fffffffffffffffffffffffffffffffffffffffffffffffffffffffffffffffff04831182151516156119b0576119af611a81565b5b828202905092915050565b60006119c682611a37565b91506119d183611a37565b9250828210156119e4576119e3611a81565b5b828203905092915050565b60006119fa82611a17565b9050919050565b60008115159050919050565b6000819050919050565b600073ffffffffffffffffffffffffffffffffffffffff82169050919050565b6000819050919050565b600060ff82169050919050565b60005b83811015611a6c578082015181840152602081019050611a51565b83811115611a7b576000848401525b50505050565b7f4e487b7100000000000000000000000000000000000000000000000000000000600052601160045260246000fd5b7f4e487b7100000000000000000000000000000000000000000000000000000000600052601260045260246000fd5b6000601f19601f8301169050919050565b7f4e4f4e5f454d5054595f44415441000000000000000000000000000000000000600082015250565b7f5472616e7366657220416d6f756e7420457863656564732057616c6c6574204260008201527f616c6c616e636500000000000000000000000000000000000000000000000000602082015250565b7f4e4f204d494e5420544f20544845205a45524f20414444524553530000000000600082015250565b7f4e4f205452414e534645522046524f4d20544845205a45524f2041444452455360008201527f5300000000000000000000000000000000000000000000000000000000000000602082015250565b7f5061757361626c653a2070617573656400000000000000000000000000000000600082015250565b7f4e4f20415050524f56414c2046524f4d205a45524f2041444452455353000000600082015250565b7f43414e4e4f542044454352454153452042454c4f57205a45524f000000000000600082015250565b7f4465706f7369745f69735f6e756c6c0000000000000000000000000000000000600082015250565b7f4e4f205452414e5346455220544f20544845205a45524f204144445245535300600082015250565b7f5452414e5346455220455843454544532042414c414e43450000000000000000600082015250565b611cdf816119ef565b8114611cea57600080fd5b50565b611cf681611a37565b8114611d0157600080fd5b5056fea2646970667358221220fa0a5fb935f0ac6ad25060733b47d9e3b500fb8883d04eb4fb93dbac930c87fe64736f6c63430008030033",
  "linkReferences": {},
  "deployedLinkReferences": {}
}