{
  "_format": "hh-sol-artifact-1",
  "contractName": "Estake",
  "sourceName": "contracts/Estake.sol",
  "abi": [
    {
      "anonymous": false,
      "inputs": [
        {
          "indexed": true,
          "internalType": "address",
          "name": "owner",
          "type": "address"
        },
        {
          "indexed": true,
          "internalType": "address",
          "name": "spender",
          "type": "address"
        },
        {
          "indexed": false,
          "internalType": "uint256",
          "name": "value",
          "type": "uint256"
        }
      ],
      "name": "Approval",
      "type": "event"
    },
    {
      "anonymous": false,
      "inputs": [
        {
          "indexed": false,
          "internalType": "uint256",
          "name": "oldPeriod",
          "type": "uint256"
        },
        {
          "indexed": false,
          "internalType": "uint256",
          "name": "newPeriod",
          "type": "uint256"
        }
      ],
      "name": "DebondageUpdated",
      "type": "event"
    },
    {
      "anonymous": false,
      "inputs": [
        {
          "indexed": false,
          "internalType": "address",
          "name": "delegator",
          "type": "address"
        },
        {
          "indexed": false,
          "internalType": "uint256",
          "name": "amount",
          "type": "uint256"
        }
      ],
      "name": "DelegationWithdrawl",
      "type": "event"
    },
    {
      "anonymous": false,
      "inputs": [
        {
          "indexed": false,
          "internalType": "uint8",
          "name": "version",
          "type": "uint8"
        }
      ],
      "name": "Initialized",
      "type": "event"
    },
    {
      "anonymous": false,
      "inputs": [
        {
          "indexed": false,
          "internalType": "address",
          "name": "account",
          "type": "address"
        }
      ],
      "name": "Paused",
      "type": "event"
    },
    {
      "anonymous": false,
      "inputs": [
        {
          "indexed": true,
          "internalType": "bytes32",
          "name": "role",
          "type": "bytes32"
        },
        {
          "indexed": true,
          "internalType": "bytes32",
          "name": "previousAdminRole",
          "type": "bytes32"
        },
        {
          "indexed": true,
          "internalType": "bytes32",
          "name": "newAdminRole",
          "type": "bytes32"
        }
      ],
      "name": "RoleAdminChanged",
      "type": "event"
    },
    {
      "anonymous": false,
      "inputs": [
        {
          "indexed": true,
          "internalType": "bytes32",
          "name": "role",
          "type": "bytes32"
        },
        {
          "indexed": true,
          "internalType": "address",
          "name": "account",
          "type": "address"
        },
        {
          "indexed": true,
          "internalType": "address",
          "name": "sender",
          "type": "address"
        }
      ],
      "name": "RoleGranted",
      "type": "event"
    },
    {
      "anonymous": false,
      "inputs": [
        {
          "indexed": true,
          "internalType": "bytes32",
          "name": "role",
          "type": "bytes32"
        },
        {
          "indexed": true,
          "internalType": "address",
          "name": "account",
          "type": "address"
        },
        {
          "indexed": true,
          "internalType": "address",
          "name": "sender",
          "type": "address"
        }
      ],
      "name": "RoleRevoked",
      "type": "event"
    },
    {
      "anonymous": false,
      "inputs": [
        {
          "indexed": true,
          "internalType": "address",
          "name": "sender",
          "type": "address"
        },
        {
          "indexed": false,
          "internalType": "uint256",
          "name": "amount",
          "type": "uint256"
        }
      ],
      "name": "Submitted",
      "type": "event"
    },
    {
      "anonymous": false,
      "inputs": [
        {
          "indexed": true,
          "internalType": "address",
          "name": "from",
          "type": "address"
        },
        {
          "indexed": true,
          "internalType": "address",
          "name": "to",
          "type": "address"
        },
        {
          "indexed": false,
          "internalType": "uint256",
          "name": "value",
          "type": "uint256"
        }
      ],
      "name": "Transfer",
      "type": "event"
    },
    {
      "anonymous": false,
      "inputs": [
        {
          "indexed": false,
          "internalType": "address",
          "name": "account",
          "type": "address"
        }
      ],
      "name": "Unpaused",
      "type": "event"
    },
    {
      "anonymous": false,
      "inputs": [
        {
          "indexed": false,
          "internalType": "address",
          "name": "depositeer",
          "type": "address"
        },
        {
          "indexed": false,
          "internalType": "uint256",
          "name": "amountDeposited",
          "type": "uint256"
        }
      ],
      "name": "UpdatedDeposit",
      "type": "event"
    },
    {
      "anonymous": false,
      "inputs": [
        {
          "indexed": false,
          "internalType": "address",
          "name": "cancellor",
          "type": "address"
        },
        {
          "indexed": false,
          "internalType": "uint256",
          "name": "timeRequested",
          "type": "uint256"
        },
        {
          "indexed": false,
          "internalType": "uint256",
          "name": "SharesCancelled",
          "type": "uint256"
        }
      ],
      "name": "WithdrawRequestCancelled",
      "type": "event"
    },
    {
      "anonymous": false,
      "inputs": [
        {
          "indexed": false,
          "internalType": "address",
          "name": "withdrawAcct",
          "type": "address"
        },
        {
          "indexed": false,
          "internalType": "uint256",
          "name": "amountAvax",
          "type": "uint256"
        }
      ],
      "name": "WithdrawRequested",
      "type": "event"
    },
    {
      "anonymous": false,
      "inputs": [
        {
          "indexed": false,
          "internalType": "uint256",
          "name": "oldPeriod",
          "type": "uint256"
        },
        {
          "indexed": false,
          "internalType": "uint256",
          "name": "newPeriod",
          "type": "uint256"
        }
      ],
      "name": "WithdrawUpdated",
      "type": "event"
    },
    {
      "anonymous": false,
      "inputs": [
        {
          "indexed": false,
          "internalType": "address",
          "name": "withdrawee",
          "type": "address"
        },
        {
          "indexed": false,
          "internalType": "uint256",
          "name": "timeRequested",
          "type": "uint256"
        },
        {
          "indexed": false,
          "internalType": "uint256",
          "name": "sharesAmount",
          "type": "uint256"
        },
        {
          "indexed": false,
          "internalType": "uint256",
          "name": "amountAvax",
          "type": "uint256"
        }
      ],
      "name": "Withdrawn",
      "type": "event"
    },
    {
      "inputs": [],
      "name": "AdminRole",
      "outputs": [
        {
          "internalType": "bytes32",
          "name": "",
          "type": "bytes32"
        }
      ],
      "stateMutability": "view",
      "type": "function"
    },
    {
      "inputs": [],
      "name": "DEFAULT_ADMIN_ROLE",
      "outputs": [
        {
          "internalType": "bytes32",
          "name": "",
          "type": "bytes32"
        }
      ],
      "stateMutability": "view",
      "type": "function"
    },
    {
      "inputs": [],
      "name": "DebondagePeriod",
      "outputs": [
        {
          "internalType": "uint256",
          "name": "",
          "type": "uint256"
        }
      ],
      "stateMutability": "view",
      "type": "function"
    },
    {
      "inputs": [],
      "name": "DepositRole",
      "outputs": [
        {
          "internalType": "bytes32",
          "name": "",
          "type": "bytes32"
        }
      ],
      "stateMutability": "view",
      "type": "function"
    },
    {
      "inputs": [],
      "name": "PauseRole",
      "outputs": [
        {
          "internalType": "bytes32",
          "name": "",
          "type": "bytes32"
        }
      ],
      "stateMutability": "view",
      "type": "function"
    },
    {
      "inputs": [],
      "name": "ResumeRole",
      "outputs": [
        {
          "internalType": "bytes32",
          "name": "",
          "type": "bytes32"
        }
      ],
      "stateMutability": "view",
      "type": "function"
    },
    {
      "inputs": [],
      "name": "RewardsRole",
      "outputs": [
        {
          "internalType": "bytes32",
          "name": "",
          "type": "bytes32"
        }
      ],
      "stateMutability": "view",
      "type": "function"
    },
    {
      "inputs": [],
      "name": "WithdrawRole",
      "outputs": [
        {
          "internalType": "bytes32",
          "name": "",
          "type": "bytes32"
        }
      ],
      "stateMutability": "view",
      "type": "function"
    },
    {
      "inputs": [],
      "name": "WithdrawWindow",
      "outputs": [
        {
          "internalType": "uint256",
          "name": "",
          "type": "uint256"
        }
      ],
      "stateMutability": "view",
      "type": "function"
    },
    {
      "inputs": [
        {
          "internalType": "uint256",
          "name": "amount",
          "type": "uint256"
        }
      ],
      "name": "accrueRewards",
      "outputs": [],
      "stateMutability": "nonpayable",
      "type": "function"
    },
    {
      "inputs": [
        {
          "internalType": "address",
          "name": "",
          "type": "address"
        }
      ],
      "name": "acctSharesHeld",
      "outputs": [
        {
          "internalType": "uint256",
          "name": "",
          "type": "uint256"
        }
      ],
      "stateMutability": "view",
      "type": "function"
    },
    {
      "inputs": [
        {
          "internalType": "address",
          "name": "",
          "type": "address"
        },
        {
          "internalType": "uint256",
          "name": "",
          "type": "uint256"
        }
      ],
      "name": "acctWithdrawRequestArray",
      "outputs": [
        {
          "internalType": "uint256",
          "name": "requestTime",
          "type": "uint256"
        },
        {
          "internalType": "uint256",
          "name": "withdrawAmount",
          "type": "uint256"
        }
      ],
      "stateMutability": "view",
      "type": "function"
    },
    {
      "inputs": [
        {
          "internalType": "address",
          "name": "owner",
          "type": "address"
        },
        {
          "internalType": "address",
          "name": "spender",
          "type": "address"
        }
      ],
      "name": "allowance",
      "outputs": [
        {
          "internalType": "uint256",
          "name": "",
          "type": "uint256"
        }
      ],
      "stateMutability": "view",
      "type": "function"
    },
    {
      "inputs": [
        {
          "internalType": "address",
          "name": "spender",
          "type": "address"
        },
        {
          "internalType": "uint256",
          "name": "amount",
          "type": "uint256"
        }
      ],
      "name": "approve",
      "outputs": [
        {
          "internalType": "bool",
          "name": "",
          "type": "bool"
        }
      ],
      "stateMutability": "nonpayable",
      "type": "function"
    },
    {
      "inputs": [
        {
          "internalType": "address",
          "name": "account",
          "type": "address"
        }
      ],
      "name": "balanceOf",
      "outputs": [
        {
          "internalType": "uint256",
          "name": "",
          "type": "uint256"
        }
      ],
      "stateMutability": "view",
      "type": "function"
    },
    {
      "inputs": [],
      "name": "decimals",
      "outputs": [
        {
          "internalType": "uint8",
          "name": "",
          "type": "uint8"
        }
      ],
      "stateMutability": "pure",
      "type": "function"
    },
    {
      "inputs": [
        {
          "internalType": "address",
          "name": "_spender",
          "type": "address"
        },
        {
          "internalType": "uint256",
          "name": "subtractedAmount",
          "type": "uint256"
        }
      ],
      "name": "decreaseAllowance",
      "outputs": [
        {
          "internalType": "bool",
          "name": "",
          "type": "bool"
        }
      ],
      "stateMutability": "nonpayable",
      "type": "function"
    },
    {
      "inputs": [],
      "name": "depositInterest",
      "outputs": [],
      "stateMutability": "payable",
      "type": "function"
    },
    {
      "inputs": [
        {
          "internalType": "address",
          "name": "acct",
          "type": "address"
        }
      ],
      "name": "getAcctRequests",
      "outputs": [
        {
          "internalType": "uint256",
          "name": "",
          "type": "uint256"
        }
      ],
      "stateMutability": "view",
      "type": "function"
    },
    {
      "inputs": [],
      "name": "getCurrStakeAccts",
      "outputs": [
        {
          "internalType": "uint256",
          "name": "",
          "type": "uint256"
        }
      ],
      "stateMutability": "view",
      "type": "function"
    },
    {
      "inputs": [
        {
          "internalType": "uint256",
          "name": "sharesAmount",
          "type": "uint256"
        }
      ],
      "name": "getPooledAvaxfromShares",
      "outputs": [
        {
          "internalType": "uint256",
          "name": "",
          "type": "uint256"
        }
      ],
      "stateMutability": "view",
      "type": "function"
    },
    {
      "inputs": [
        {
          "internalType": "bytes32",
          "name": "role",
          "type": "bytes32"
        }
      ],
      "name": "getRoleAdmin",
      "outputs": [
        {
          "internalType": "bytes32",
          "name": "",
          "type": "bytes32"
        }
      ],
      "stateMutability": "view",
      "type": "function"
    },
    {
      "inputs": [
        {
          "internalType": "uint256",
          "name": "_amountAvax",
          "type": "uint256"
        }
      ],
      "name": "getSharesFromStakedAvax",
      "outputs": [
        {
          "internalType": "uint256",
          "name": "",
          "type": "uint256"
        }
      ],
      "stateMutability": "view",
      "type": "function"
    },
    {
      "inputs": [],
      "name": "getSupply",
      "outputs": [
        {
          "internalType": "uint256",
          "name": "",
          "type": "uint256"
        }
      ],
      "stateMutability": "view",
      "type": "function"
    },
    {
      "inputs": [],
      "name": "getTotalAvaxPooled",
      "outputs": [
        {
          "internalType": "uint256",
          "name": "",
          "type": "uint256"
        }
      ],
      "stateMutability": "view",
      "type": "function"
    },
    {
      "inputs": [],
      "name": "getTotalShares",
      "outputs": [
        {
          "internalType": "uint256",
          "name": "",
          "type": "uint256"
        }
      ],
      "stateMutability": "view",
      "type": "function"
    },
    {
      "inputs": [],
      "name": "getTotalSupply",
      "outputs": [
        {
          "internalType": "uint256",
          "name": "",
          "type": "uint256"
        }
      ],
      "stateMutability": "view",
      "type": "function"
    },
    {
      "inputs": [
        {
          "internalType": "bytes32",
          "name": "role",
          "type": "bytes32"
        },
        {
          "internalType": "address",
          "name": "account",
          "type": "address"
        }
      ],
      "name": "grantRole",
      "outputs": [],
      "stateMutability": "nonpayable",
      "type": "function"
    },
    {
      "inputs": [
        {
          "internalType": "bytes32",
          "name": "role",
          "type": "bytes32"
        },
        {
          "internalType": "address",
          "name": "account",
          "type": "address"
        }
      ],
      "name": "hasRole",
      "outputs": [
        {
          "internalType": "bool",
          "name": "",
          "type": "bool"
        }
      ],
      "stateMutability": "view",
      "type": "function"
    },
    {
      "inputs": [
        {
          "internalType": "address",
          "name": "_spender",
          "type": "address"
        },
        {
          "internalType": "uint256",
          "name": "addedAmount",
          "type": "uint256"
        }
      ],
      "name": "increaseAllowance",
      "outputs": [
        {
          "internalType": "bool",
          "name": "",
          "type": "bool"
        }
      ],
      "stateMutability": "nonpayable",
      "type": "function"
    },
    {
      "inputs": [
        {
          "internalType": "uint256",
          "name": "_withdrawWindow",
          "type": "uint256"
        },
        {
          "internalType": "uint256",
          "name": "_debondageWindow",
          "type": "uint256"
        }
      ],
      "name": "initialize",
      "outputs": [],
      "stateMutability": "nonpayable",
      "type": "function"
    },
    {
      "inputs": [],
      "name": "name",
      "outputs": [
        {
          "internalType": "string",
          "name": "",
          "type": "string"
        }
      ],
      "stateMutability": "pure",
      "type": "function"
    },
    {
      "inputs": [
        {
          "internalType": "uint256",
          "name": "",
          "type": "uint256"
        }
      ],
      "name": "oldExchangeRateByTime",
      "outputs": [
        {
          "internalType": "uint256",
          "name": "",
          "type": "uint256"
        }
      ],
      "stateMutability": "view",
      "type": "function"
    },
    {
      "inputs": [
        {
          "internalType": "uint256",
          "name": "",
          "type": "uint256"
        }
      ],
      "name": "oldExchangeRateByTimes",
      "outputs": [
        {
          "internalType": "uint256",
          "name": "",
          "type": "uint256"
        }
      ],
      "stateMutability": "view",
      "type": "function"
    },
    {
      "inputs": [],
      "name": "pause",
      "outputs": [],
      "stateMutability": "nonpayable",
      "type": "function"
    },
    {
      "inputs": [],
      "name": "paused",
      "outputs": [
        {
          "internalType": "bool",
          "name": "",
          "type": "bool"
        }
      ],
      "stateMutability": "view",
      "type": "function"
    },
    {
      "inputs": [
        {
          "internalType": "bytes32",
          "name": "role",
          "type": "bytes32"
        },
        {
          "internalType": "address",
          "name": "account",
          "type": "address"
        }
      ],
      "name": "renounceRole",
      "outputs": [],
      "stateMutability": "nonpayable",
      "type": "function"
    },
    {
      "inputs": [],
      "name": "resume",
      "outputs": [],
      "stateMutability": "nonpayable",
      "type": "function"
    },
    {
      "inputs": [
        {
          "internalType": "address",
          "name": "acct",
          "type": "address"
        },
        {
          "internalType": "uint256",
          "name": "start",
          "type": "uint256"
        },
        {
          "internalType": "uint256",
          "name": "end",
          "type": "uint256"
        }
      ],
      "name": "retrieveAcctRequestesEnumerated",
      "outputs": [
        {
          "components": [
            {
              "internalType": "uint256",
              "name": "requestTime",
              "type": "uint256"
            },
            {
              "internalType": "uint256",
              "name": "withdrawAmount",
              "type": "uint256"
            }
          ],
          "internalType": "struct Estake.withdrawRequest[]",
          "name": "",
          "type": "tuple[]"
        },
        {
          "internalType": "uint256[]",
          "name": "",
          "type": "uint256[]"
        }
      ],
      "stateMutability": "view",
      "type": "function"
    },
    {
      "inputs": [
        {
          "internalType": "bytes32",
          "name": "role",
          "type": "bytes32"
        },
        {
          "internalType": "address",
          "name": "account",
          "type": "address"
        }
      ],
      "name": "revokeRole",
      "outputs": [],
      "stateMutability": "nonpayable",
      "type": "function"
    },
    {
      "inputs": [
        {
          "internalType": "uint256",
          "name": "newDebondagePeriod",
          "type": "uint256"
        }
      ],
      "name": "setDebondagePeriod",
      "outputs": [],
      "stateMutability": "nonpayable",
      "type": "function"
    },
    {
      "inputs": [
        {
          "internalType": "uint256",
          "name": "newWindow",
          "type": "uint256"
        }
      ],
      "name": "setNewWithdrawWindow",
      "outputs": [],
      "stateMutability": "nonpayable",
      "type": "function"
    },
    {
      "inputs": [
        {
          "internalType": "address",
          "name": "account",
          "type": "address"
        }
      ],
      "name": "sharesOf",
      "outputs": [
        {
          "internalType": "uint256",
          "name": "",
          "type": "uint256"
        }
      ],
      "stateMutability": "view",
      "type": "function"
    },
    {
      "inputs": [],
      "name": "stake",
      "outputs": [
        {
          "internalType": "uint256",
          "name": "",
          "type": "uint256"
        }
      ],
      "stateMutability": "payable",
      "type": "function"
    },
    {
      "inputs": [
        {
          "internalType": "bytes4",
          "name": "interfaceId",
          "type": "bytes4"
        }
      ],
      "name": "supportsInterface",
      "outputs": [
        {
          "internalType": "bool",
          "name": "",
          "type": "bool"
        }
      ],
      "stateMutability": "view",
      "type": "function"
    },
    {
      "inputs": [],
      "name": "symbol",
      "outputs": [
        {
          "internalType": "string",
          "name": "",
          "type": "string"
        }
      ],
      "stateMutability": "pure",
      "type": "function"
    },
    {
      "inputs": [],
      "name": "totalSupply",
      "outputs": [
        {
          "internalType": "uint256",
          "name": "",
          "type": "uint256"
        }
      ],
      "stateMutability": "view",
      "type": "function"
    },
    {
      "inputs": [
        {
          "internalType": "address",
          "name": "reciver",
          "type": "address"
        },
        {
          "internalType": "uint256",
          "name": "amount",
          "type": "uint256"
        }
      ],
      "name": "transfer",
      "outputs": [
        {
          "internalType": "bool",
          "name": "",
          "type": "bool"
        }
      ],
      "stateMutability": "nonpayable",
      "type": "function"
    },
    {
      "inputs": [
        {
          "internalType": "address",
          "name": "_sender",
          "type": "address"
        },
        {
          "internalType": "address",
          "name": "reciver",
          "type": "address"
        },
        {
          "internalType": "uint256",
          "name": "amount",
          "type": "uint256"
        }
      ],
      "name": "transferFrom",
      "outputs": [
        {
          "internalType": "bool",
          "name": "",
          "type": "bool"
        }
      ],
      "stateMutability": "nonpayable",
      "type": "function"
    },
    {
      "inputs": [
        {
          "internalType": "uint256",
          "name": "amountShares",
          "type": "uint256"
        }
      ],
      "name": "withdraw",
      "outputs": [],
      "stateMutability": "nonpayable",
      "type": "function"
    },
    {
      "inputs": [
        {
          "internalType": "uint256",
          "name": "avaxAmount",
          "type": "uint256"
        }
      ],
      "name": "withdrawForDelegation",
      "outputs": [],
      "stateMutability": "nonpayable",
      "type": "function"
    },
    {
      "stateMutability": "payable",
      "type": "receive"
    }
  ],
  "bytecode": "0x608060405234801561001057600080fd5b506155dd80620000216000396000f3fe6080604052600436106102e85760003560e01c80636c9c2faf11610190578063ba718c8f116100dc578063e1a472b911610095578063e7d9d9fc1161006f578063e7d9d9fc14610b9c578063f5eb42dc14610bc7578063f7b1280014610c04578063f8cb5eb414610c41576102f8565b8063e1a472b914610b0c578063e46ee60b14610b35578063e4a3011614610b73576102f8565b8063ba718c8f146109e8578063c4e41b2214610a13578063ce5da6a614610a3e578063d5002f2e14610a7b578063d547741f14610aa6578063dd62ed3e14610acf576102f8565b806391d1485411610149578063a457c2d711610123578063a457c2d714610918578063a9059cbb14610955578063b20e16c914610992578063b306c84d146109bd576102f8565b806391d148541461088557806395d89b41146108c2578063a217fddf146108ed576102f8565b80636c9c2faf1461078557806370a08231146107b057806383c2cfe6146107ed578063840b20f9146108185780638456cb59146108435780638910e1ed1461085a576102f8565b80632e1a7d4d1161024f5780633a4b66f1116102085780634db140ca116101e25780634db140ca146106fc578063503de2ab146107255780635210cf381461072f5780635c975abb1461075a576102f8565b80633a4b66f11461066457806348ce74fa1461068257806349f82885146106bf576102f8565b80632e1a7d4d146105565780632f2ff15d1461057f578063313ce567146105a857806336568abe146105d357806338906ada146105fc5780633950935114610627576102f8565b806318160ddd116102a157806318160ddd1461041f5780632352ffd31461044a57806323b872dd14610475578063248a9ca3146104b25780632d2b8ea4146104ef5780632e02921714610518576102f8565b806301ffc9a7146102fd578063046f7da21461033a57806306fdde0314610351578063095ea7b31461037c5780630b56d74d146103b9578063102a3436146103e2576102f8565b366102f8576102f5610c7e565b50005b600080fd5b34801561030957600080fd5b50610324600480360381019061031f9190613e8d565b610cd6565b6040516103319190614688565b60405180910390f35b34801561034657600080fd5b5061034f610d50565b005b34801561035d57600080fd5b50610366610dc3565b6040516103739190614702565b60405180910390f35b34801561038857600080fd5b506103a3600480360381019061039e9190613d9d565b610e00565b6040516103b09190614688565b60405180910390f35b3480156103c557600080fd5b506103e060048036038101906103db9190613eb6565b610e17565b005b3480156103ee57600080fd5b5061040960048036038101906104049190613ce9565b610ecd565b6040516104169190614b04565b60405180910390f35b34801561042b57600080fd5b50610434610ee6565b6040516104419190614b04565b60405180910390f35b34801561045657600080fd5b5061045f610ef5565b60405161046c91906146a3565b60405180910390f35b34801561048157600080fd5b5061049c60048036038101906104979190613d4e565b610f19565b6040516104a99190614688565b60405180910390f35b3480156104be57600080fd5b506104d960048036038101906104d49190613e28565b611013565b6040516104e691906146a3565b60405180910390f35b3480156104fb57600080fd5b5061051660048036038101906105119190613eb6565b611033565b005b34801561052457600080fd5b5061053f600480360381019061053a9190613dd9565b6111db565b60405161054d929190614651565b60405180910390f35b34801561056257600080fd5b5061057d60048036038101906105789190613eb6565b6116b3565b005b34801561058b57600080fd5b506105a660048036038101906105a19190613e51565b6116bf565b005b3480156105b457600080fd5b506105bd6116e0565b6040516105ca9190614b48565b60405180910390f35b3480156105df57600080fd5b506105fa60048036038101906105f59190613e51565b6116e9565b005b34801561060857600080fd5b5061061161176c565b60405161061e91906146a3565b60405180910390f35b34801561063357600080fd5b5061064e60048036038101906106499190613d9d565b611790565b60405161065b9190614688565b60405180910390f35b61066c611836565b6040516106799190614b04565b60405180910390f35b34801561068e57600080fd5b506106a960048036038101906106a49190613eb6565b611845565b6040516106b69190614b04565b60405180910390f35b3480156106cb57600080fd5b506106e660048036038101906106e19190613eb6565b61189a565b6040516106f39190614b04565b60405180910390f35b34801561070857600080fd5b50610723600480360381019061071e9190613eb6565b6118bf565b005b61072d611975565b005b34801561073b57600080fd5b50610744611a5c565b6040516107519190614b04565b60405180910390f35b34801561076657600080fd5b5061076f611a67565b60405161077c9190614688565b60405180910390f35b34801561079157600080fd5b5061079a611a7e565b6040516107a79190614b04565b60405180910390f35b3480156107bc57600080fd5b506107d760048036038101906107d29190613ce9565b611a89565b6040516107e49190614b04565b60405180910390f35b3480156107f957600080fd5b50610802611aa3565b60405161080f91906146a3565b60405180910390f35b34801561082457600080fd5b5061082d611ac7565b60405161083a9190614b04565b60405180910390f35b34801561084f57600080fd5b50610858611ad6565b005b34801561086657600080fd5b5061086f611b49565b60405161087c91906146a3565b60405180910390f35b34801561089157600080fd5b506108ac60048036038101906108a79190613e51565b611b6d565b6040516108b99190614688565b60405180910390f35b3480156108ce57600080fd5b506108d7611bd8565b6040516108e49190614702565b60405180910390f35b3480156108f957600080fd5b50610902611c15565b60405161090f91906146a3565b60405180910390f35b34801561092457600080fd5b5061093f600480360381019061093a9190613d9d565b611c1c565b60405161094c9190614688565b60405180910390f35b34801561096157600080fd5b5061097c60048036038101906109779190613d9d565b611d0a565b6040516109899190614688565b60405180910390f35b34801561099e57600080fd5b506109a7611d21565b6040516109b491906146a3565b60405180910390f35b3480156109c957600080fd5b506109d2611d45565b6040516109df9190614b04565b60405180910390f35b3480156109f457600080fd5b506109fd611d4c565b604051610a0a91906146a3565b60405180910390f35b348015610a1f57600080fd5b50610a28611d70565b604051610a359190614b04565b60405180910390f35b348015610a4a57600080fd5b50610a656004803603810190610a609190613eb6565b611d7f565b604051610a729190614b04565b60405180910390f35b348015610a8757600080fd5b50610a90611dd4565b604051610a9d9190614b04565b60405180910390f35b348015610ab257600080fd5b50610acd6004803603810190610ac89190613e51565b611de3565b005b348015610adb57600080fd5b50610af66004803603810190610af19190613d12565b611e04565b604051610b039190614b04565b60405180910390f35b348015610b1857600080fd5b50610b336004803603810190610b2e9190613eb6565b611e8c565b005b348015610b4157600080fd5b50610b5c6004803603810190610b579190613d9d565b611fbb565b604051610b6a929190614b1f565b60405180910390f35b348015610b7f57600080fd5b50610b9a6004803603810190610b959190613edf565b611ffd565b005b348015610ba857600080fd5b50610bb16121ad565b604051610bbe9190614b04565b60405180910390f35b348015610bd357600080fd5b50610bee6004803603810190610be99190613ce9565b6121b4565b604051610bfb9190614b04565b60405180910390f35b348015610c1057600080fd5b50610c2b6004803603810190610c269190613eb6565b6121c6565b604051610c389190614b04565b60405180910390f35b348015610c4d57600080fd5b50610c686004803603810190610c639190613ce9565b6121df565b604051610c759190614b04565b60405180910390f35b600080600036905014610cc6576040517f08c379a0000000000000000000000000000000000000000000000000000000008152600401610cbd90614784565b60405180910390fd5b610cce61222c565b506001905090565b60007f7965db0b000000000000000000000000000000000000000000000000000000007bffffffffffffffffffffffffffffffffffffffffffffffffffffffff1916827bffffffffffffffffffffffffffffffffffffffffffffffffffffffff19161480610d495750610d4882612306565b5b9050919050565b610d7a7f2fc10cc8ae19568712f7a176fb4978616a610650813c9d05326c34abb62749c733611b6d565b610db9576040517f08c379a0000000000000000000000000000000000000000000000000000000008152600401610db090614984565b60405180910390fd5b610dc1612370565b565b60606040518060400160405280600b81526020017f457374616b656441766178000000000000000000000000000000000000000000815250905090565b6000610e0d33848461237a565b6001905092915050565b610e417f0cf3ab891c58979bce2fd6ff905f74d3f487e7773b32cd9b7ad636074af2b54d33611b6d565b610e80576040517f08c379a0000000000000000000000000000000000000000000000000000000008152600401610e7790614a84565b60405180910390fd5b600061013154905081610131819055507ff3d617f29718a874373330d8af868bc198e4b32a293ff283c11c2e31bfb133f28183604051610ec1929190614b1f565b60405180910390a15050565b6101366020528060005260406000206000915090505481565b6000610ef061258e565b905090565b7f5d8e12c39142ff96d79d04d15d1ba1269e4fe57bb9d26f43523628b34ba108ec81565b60008061012e60008673ffffffffffffffffffffffffffffffffffffffff1673ffffffffffffffffffffffffffffffffffffffff16815260200190815260200160002060003373ffffffffffffffffffffffffffffffffffffffff1673ffffffffffffffffffffffffffffffffffffffff16815260200190815260200160002054905082811015610fdf576040517f08c379a0000000000000000000000000000000000000000000000000000000008152600401610fd6906147c4565b60405180910390fd5b610fea8585856125c3565b6110078533611002868561264690919063ffffffff16565b61237a565b60019150509392505050565b600060c96000838152602001908152602001600020600101549050919050565b60026065541415611079576040517f08c379a000000000000000000000000000000000000000000000000000000000815260040161107090614a64565b60405180910390fd5b60026065819055506110ab7f5d8e12c39142ff96d79d04d15d1ba1269e4fe57bb9d26f43523628b34ba108ec33611b6d565b6110ea576040517f08c379a00000000000000000000000000000000000000000000000000000000081526004016110e190614924565b60405180910390fd5b60003373ffffffffffffffffffffffffffffffffffffffff1682604051611110906145be565b60006040518083038185875af1925050503d806000811461114d576040519150601f19603f3d011682016040523d82523d6000602084013e611152565b606091505b5050905080611196576040517f08c379a000000000000000000000000000000000000000000000000000000000815260040161118d90614804565b60405180910390fd5b7fbefa55ffc938d1c0961c65392d9ba7ecc46d37bab46137d6155599e14b080b6f33836040516111c7929190614628565b60405180910390a150600160658190555050565b60608061013560008673ffffffffffffffffffffffffffffffffffffffff1673ffffffffffffffffffffffffffffffffffffffff168152602001908152602001600020805490508410611263576040517f08c379a000000000000000000000000000000000000000000000000000000000815260040161125a906149a4565b60405180910390fd5b8284106112a5576040517f08c379a000000000000000000000000000000000000000000000000000000000815260040161129c90614764565b60405180910390fd5b61013560008673ffffffffffffffffffffffffffffffffffffffff1673ffffffffffffffffffffffffffffffffffffffff168152602001908152602001600020805490508411156113375761013560008673ffffffffffffffffffffffffffffffffffffffff1673ffffffffffffffffffffffffffffffffffffffff1681526020019081526020016000208054905093505b600061134c858561264690919063ffffffff16565b67ffffffffffffffff81111561138b577f4e487b7100000000000000000000000000000000000000000000000000000000600052604160045260246000fd5b6040519080825280602002602001820160405280156113c457816020015b6113b1613bd8565b8152602001906001900390816113a95790505b50905060006113dc868661264690919063ffffffff16565b67ffffffffffffffff81111561141b577f4e487b7100000000000000000000000000000000000000000000000000000000600052604160045260246000fd5b6040519080825280602002602001820160405280156114495781602001602082028036833780820191505090505b50905060005b611462878761264690919063ffffffff16565b8110156116a25761013560008973ffffffffffffffffffffffffffffffffffffffff1673ffffffffffffffffffffffffffffffffffffffff1681526020019081526020016000206114bc828961265c90919063ffffffff16565b815481106114f3577f4e487b7100000000000000000000000000000000000000000000000000000000600052603260045260246000fd5b906000526020600020906002020160405180604001604052908160008201548152602001600182015481525050838281518110611559577f4e487b7100000000000000000000000000000000000000000000000000000000600052603260045260246000fd5b60200260200101819052506115ad8382815181106115a0577f4e487b7100000000000000000000000000000000000000000000000000000000600052603260045260246000fd5b6020026020010151612672565b1561168f576000806116028584815181106115f1577f4e487b7100000000000000000000000000000000000000000000000000000000600052603260045260246000fd5b6020026020010151600001516126bf565b9150915081611646576040517f08c379a000000000000000000000000000000000000000000000000000000000815260040161163d906147a4565b60405180910390fd5b80848481518110611680577f4e487b7100000000000000000000000000000000000000000000000000000000600052603260045260246000fd5b60200260200101818152505050505b808061169a90614e5a565b91505061144f565b508181935093505050935093915050565b6116bc81612910565b50565b6116c882611013565b6116d181612bb6565b6116db8383612bca565b505050565b60006012905090565b6116f1612cab565b73ffffffffffffffffffffffffffffffffffffffff168173ffffffffffffffffffffffffffffffffffffffff161461175e576040517f08c379a000000000000000000000000000000000000000000000000000000000815260040161175590614ac4565b60405180910390fd5b6117688282612cb3565b5050565b7f139c2898040ef16910dc9f44dc697df79363da767d8bc92f2e310312b816e46d81565b600061182c33846118278561012e60003373ffffffffffffffffffffffffffffffffffffffff1673ffffffffffffffffffffffffffffffffffffffff16815260200190815260200160002060008973ffffffffffffffffffffffffffffffffffffffff1673ffffffffffffffffffffffffffffffffffffffff1681526020019081526020016000205461265c90919063ffffffff16565b61237a565b6001905092915050565b600061184061222c565b905090565b600080611850611ac7565b90506000811415611865576000915050611895565b61189181611883611874611dd4565b86612d9590919063ffffffff16565b612dab90919063ffffffff16565b9150505b919050565b61013481815481106118ab57600080fd5b906000526020600020016000915090505481565b6118e97f0cf3ab891c58979bce2fd6ff905f74d3f487e7773b32cd9b7ad636074af2b54d33611b6d565b611928576040517f08c379a000000000000000000000000000000000000000000000000000000000815260040161191f90614824565b60405180910390fd5b600061013254905081610132819055507faf230d1b6e7d235758ae04cb640156917b958bab6188ad5dfbfb8799c9e91d0b8183604051611969929190614b1f565b60405180910390a15050565b61199f7f2561bf26f818282a3be40719542054d2173eb0d38539e8a8d3cff22f29fd238433611b6d565b6119de576040517f08c379a00000000000000000000000000000000000000000000000000000000081526004016119d590614a24565b60405180910390fd5b60003411611a21576040517f08c379a0000000000000000000000000000000000000000000000000000000008152600401611a1890614a44565b60405180910390fd5b7ffe2f45bbf481fc5c0b0eea204191762a096ba36d585bfc99c98b07eeaa8305393334604051611a52929190614628565b60405180910390a1565b600061012f54905090565b6000603360009054906101000a900460ff16905090565b600061013054905090565b6000611a9c611a9783612dc1565b611d7f565b9050919050565b7f2561bf26f818282a3be40719542054d2173eb0d38539e8a8d3cff22f29fd238481565b6000611ad161258e565b905090565b611b007f139c2898040ef16910dc9f44dc697df79363da767d8bc92f2e310312b816e46d33611b6d565b611b3f576040517f08c379a0000000000000000000000000000000000000000000000000000000008152600401611b3690614ae4565b60405180910390fd5b611b47612e0b565b565b7f0cf3ab891c58979bce2fd6ff905f74d3f487e7773b32cd9b7ad636074af2b54d81565b600060c9600084815260200190815260200160002060000160008373ffffffffffffffffffffffffffffffffffffffff1673ffffffffffffffffffffffffffffffffffffffff16815260200190815260200160002060009054906101000a900460ff16905092915050565b60606040518060400160405280600681526020017f6573415641580000000000000000000000000000000000000000000000000000815250905090565b6000801b81565b60008061012e60003373ffffffffffffffffffffffffffffffffffffffff1673ffffffffffffffffffffffffffffffffffffffff16815260200190815260200160002060008573ffffffffffffffffffffffffffffffffffffffff1673ffffffffffffffffffffffffffffffffffffffff16815260200190815260200160002054905082811015611ce2576040517f08c379a0000000000000000000000000000000000000000000000000000000008152600401611cd990614964565b60405180910390fd5b611cff3385611cfa868561264690919063ffffffff16565b61237a565b600191505092915050565b6000611d173384846125c3565b6001905092915050565b7f5407862f04286ebe607684514c14b7fffc750b6bf52ba44ea49569174845a5bd81565b6101315481565b7f2fc10cc8ae19568712f7a176fb4978616a610650813c9d05326c34abb62749c781565b6000611d7a61258e565b905090565b600080611d8a612e15565b90506000811415611d9f576000915050611dcf565b611dcb81611dbd611dae61258e565b86612d9590919063ffffffff16565b612dab90919063ffffffff16565b9150505b919050565b6000611dde612e15565b905090565b611dec82611013565b611df581612bb6565b611dff8383612cb3565b505050565b600061012e60008473ffffffffffffffffffffffffffffffffffffffff1673ffffffffffffffffffffffffffffffffffffffff16815260200190815260200160002060008373ffffffffffffffffffffffffffffffffffffffff1673ffffffffffffffffffffffffffffffffffffffff16815260200190815260200160002054905092915050565b60026065541415611ed2576040517f08c379a0000000000000000000000000000000000000000000000000000000008152600401611ec990614a64565b60405180910390fd5b6002606581905550611f047f5407862f04286ebe607684514c14b7fffc750b6bf52ba44ea49569174845a5bd33611b6d565b611f43576040517f08c379a0000000000000000000000000000000000000000000000000000000008152600401611f3a906147e4565b60405180910390fd5b611fb0611f8182611f737f695672e264d4ed6756d0d51237a754983a90228e98417d3cf96ee34fde578f53612e45565b61265c90919063ffffffff16565b7f695672e264d4ed6756d0d51237a754983a90228e98417d3cf96ee34fde578f53612e5090919063ffffffff16565b600160658190555050565b6101356020528160005260406000208181548110611fd857600080fd5b9060005260206000209060020201600091509150508060000154908060010154905082565b60006120096001612e57565b9050801561202d576001600060016101000a81548160ff0219169083151502179055505b6120a16040518060400160405280600681526020017f457374616b6500000000000000000000000000000000000000000000000000008152506040518060400160405280600681526020017f6573415641580000000000000000000000000000000000000000000000000000815250612f47565b6120cb7f0cf3ab891c58979bce2fd6ff905f74d3f487e7773b32cd9b7ad636074af2b54d33612fa4565b82610132819055507faf230d1b6e7d235758ae04cb640156917b958bab6188ad5dfbfb8799c9e91d0b6000846040516121059291906146be565b60405180910390a181610131819055507ff3d617f29718a874373330d8af868bc198e4b32a293ff283c11c2e31bfb133f26000836040516121479291906146be565b60405180910390a180156121a85760008060016101000a81548160ff0219169083151502179055507f7f26b83ff96e1f2b6a682f133852f6798a09c465da95921460cefb3847402498600160405161219f91906146e7565b60405180910390a15b505050565b6101325481565b60006121bf82612dc1565b9050919050565b6101336020528060005260406000206000915090505481565b600061013560008373ffffffffffffffffffffffffffffffffffffffff1673ffffffffffffffffffffffffffffffffffffffff168152602001908152602001600020805490509050919050565b6000612236611a67565b15612276576040517f08c379a000000000000000000000000000000000000000000000000000000000815260040161226d906148c4565b60405180910390fd5b6000339050600034905060008114156122c4576040517f08c379a00000000000000000000000000000000000000000000000000000000081526004016122bb906149c4565b60405180910390fd5b60006122cf82611845565b905060008114156122de578190505b6122e88382612fb2565b506122f38383613158565b6122fd83826131dd565b80935050505090565b60007f01ffc9a7000000000000000000000000000000000000000000000000000000007bffffffffffffffffffffffffffffffffffffffffffffffffffffffff1916827bffffffffffffffffffffffffffffffffffffffffffffffffffffffff1916149050919050565b61237861324f565b565b612382611a67565b156123c2576040517f08c379a00000000000000000000000000000000000000000000000000000000081526004016123b9906148c4565b60405180910390fd5b600073ffffffffffffffffffffffffffffffffffffffff168373ffffffffffffffffffffffffffffffffffffffff161415612432576040517f08c379a000000000000000000000000000000000000000000000000000000000815260040161242990614944565b60405180910390fd5b600073ffffffffffffffffffffffffffffffffffffffff168273ffffffffffffffffffffffffffffffffffffffff1614156124a2576040517f08c379a000000000000000000000000000000000000000000000000000000000815260040161249990614944565b60405180910390fd5b8061012e60008573ffffffffffffffffffffffffffffffffffffffff1673ffffffffffffffffffffffffffffffffffffffff16815260200190815260200160002060008473ffffffffffffffffffffffffffffffffffffffff1673ffffffffffffffffffffffffffffffffffffffff168152602001908152602001600020819055508173ffffffffffffffffffffffffffffffffffffffff168373ffffffffffffffffffffffffffffffffffffffff167f8c5be1e5ebec7d5bd14f71427d1e84f3dd0314c0f7b2291e5b200ac8c7c3b925836040516125819190614b04565b60405180910390a3505050565b6000806125ba7f695672e264d4ed6756d0d51237a754983a90228e98417d3cf96ee34fde578f53612e45565b90508091505090565b60006125ce82611845565b90506125db8484836132f1565b8273ffffffffffffffffffffffffffffffffffffffff168473ffffffffffffffffffffffffffffffffffffffff167fddf252ad1be2c89b69c2b068fc378daa952ba7f163c4a11628f55a4df523b3ef846040516126389190614b04565b60405180910390a350505050565b600081836126549190614ce8565b905092915050565b6000818361266a9190614c07565b905092915050565b600061267d826136d4565b1580156126b85750426126b5610132546126a761013154866000015161265c90919063ffffffff16565b61265c90919063ffffffff16565b10155b9050919050565b60008060006101348054905014156126dd576000809150915061290b565b600080806001610134805490506126f49190614ce8565b9050600061270e610131548861265c90919063ffffffff16565b90505b8184116128ff5761273e6002612730868561265c90919063ffffffff16565b612dab90919063ffffffff16565b925080610134848154811061277c577f4e487b7100000000000000000000000000000000000000000000000000000000600052603260045260246000fd5b9060005260206000200154116128c257610134805490506127a760018561265c90919063ffffffff16565b148061280a5750806101346127c660018661265c90919063ffffffff16565b815481106127fd577f4e487b7100000000000000000000000000000000000000000000000000000000600052603260045260246000fd5b9060005260206000200154115b156128a757600161013480858154811061284d577f4e487b7100000000000000000000000000000000000000000000000000000000600052603260045260246000fd5b90600052602060002001548154811061288f577f4e487b7100000000000000000000000000000000000000000000000000000000600052603260045260246000fd5b9060005260206000200154955095505050505061290b565b6128bb60018461265c90919063ffffffff16565b93506128fa565b60008314156128e3576001670de0b6b3a7640000955095505050505061290b565b6128f760018461264690919063ffffffff16565b91505b612711565b60008095509550505050505b915091565b60026065541415612956576040517f08c379a000000000000000000000000000000000000000000000000000000000815260040161294d90614a64565b60405180910390fd5b6002606581905550612966611a67565b156129a6576040517f08c379a000000000000000000000000000000000000000000000000000000000815260040161299d906148c4565b60405180910390fd5b600081116129e9576040517f08c379a00000000000000000000000000000000000000000000000000000000081526004016129e0906148a4565b60405180910390fd5b6129f2336121b4565b811115612a34576040517f08c379a0000000000000000000000000000000000000000000000000000000008152600401612a2b906148e4565b60405180910390fd5b612a878161013660003373ffffffffffffffffffffffffffffffffffffffff1673ffffffffffffffffffffffffffffffffffffffff1681526020019081526020016000205461265c90919063ffffffff16565b61013660003373ffffffffffffffffffffffffffffffffffffffff1673ffffffffffffffffffffffffffffffffffffffff16815260200190815260200160002081905550612ad63330836132f1565b61013560003373ffffffffffffffffffffffffffffffffffffffff1673ffffffffffffffffffffffffffffffffffffffff1681526020019081526020016000206040518060400160405280428152602001838152509080600181540180825580915050600190039060005260206000209060020201600090919091909150600082015181600001556020820151816001015550507ff7774b688d56120b783560a913ee60792a73dfd511812b7be5eccf10d08c668933612b9583611d7f565b604051612ba3929190614628565b60405180910390a1600160658190555050565b612bc781612bc2612cab565b6136fa565b50565b612bd48282611b6d565b612ca757600160c9600084815260200190815260200160002060000160008373ffffffffffffffffffffffffffffffffffffffff1673ffffffffffffffffffffffffffffffffffffffff16815260200190815260200160002060006101000a81548160ff021916908315150217905550612c4c612cab565b73ffffffffffffffffffffffffffffffffffffffff168173ffffffffffffffffffffffffffffffffffffffff16837f2f8788117e7eff1d82e926ec794901d17c78024a50270940304540a733656f0d60405160405180910390a45b5050565b600033905090565b612cbd8282611b6d565b15612d9157600060c9600084815260200190815260200160002060000160008373ffffffffffffffffffffffffffffffffffffffff1673ffffffffffffffffffffffffffffffffffffffff16815260200190815260200160002060006101000a81548160ff021916908315150217905550612d36612cab565b73ffffffffffffffffffffffffffffffffffffffff168173ffffffffffffffffffffffffffffffffffffffff16837ff6391f5c32d9c69d2a47ea670b442974b53935d1edc7fd64eb21e047a839171b60405160405180910390a45b5050565b60008183612da39190614c8e565b905092915050565b60008183612db99190614c5d565b905092915050565b600061012d60008373ffffffffffffffffffffffffffffffffffffffff1673ffffffffffffffffffffffffffffffffffffffff168152602001908152602001600020549050919050565b612e13613797565b565b6000612e407f3ec28447c1cd3fd5175b5414b8304ec6748559bc446468c819297870cd808f19612e45565b905090565b600081549050919050565b8082555050565b60008060019054906101000a900460ff1615612ece5760018260ff16148015612e865750612e843061383a565b155b612ec5576040517f08c379a0000000000000000000000000000000000000000000000000000000008152600401612ebc90614904565b60405180910390fd5b60009050612f42565b8160ff1660008054906101000a900460ff1660ff1610612f23576040517f08c379a0000000000000000000000000000000000000000000000000000000008152600401612f1a90614904565b60405180910390fd5b816000806101000a81548160ff021916908360ff160217905550600190505b919050565b600060019054906101000a900460ff16612f96576040517f08c379a0000000000000000000000000000000000000000000000000000000008152600401612f8d90614a04565b60405180910390fd5b612fa0828261385d565b5050565b612fae8282612bca565b5050565b6000612fbc611a67565b15612ffc576040517f08c379a0000000000000000000000000000000000000000000000000000000008152600401612ff3906148c4565b60405180910390fd5b600073ffffffffffffffffffffffffffffffffffffffff168373ffffffffffffffffffffffffffffffffffffffff16141561306c576040517f08c379a000000000000000000000000000000000000000000000000000000000815260040161306390614844565b60405180910390fd5b61308682613078611dd4565b61265c90919063ffffffff16565b90506130bb817f3ec28447c1cd3fd5175b5414b8304ec6748559bc446468c819297870cd808f19612e5090919063ffffffff16565b61310e8161012d60008673ffffffffffffffffffffffffffffffffffffffff1673ffffffffffffffffffffffffffffffffffffffff1681526020019081526020016000205461265c90919063ffffffff16565b61012d60008573ffffffffffffffffffffffffffffffffffffffff1673ffffffffffffffffffffffffffffffffffffffff1681526020019081526020016000208190555092915050565b61318b817f695672e264d4ed6756d0d51237a754983a90228e98417d3cf96ee34fde578f53612e5090919063ffffffff16565b8173ffffffffffffffffffffffffffffffffffffffff167f1439dff93e9e1f47823f730d1ac6d0e67fd98a81c2dc5e02d6b0f7d9af4edc8a826040516131d19190614b04565b60405180910390a25050565b8173ffffffffffffffffffffffffffffffffffffffff16600073ffffffffffffffffffffffffffffffffffffffff167fddf252ad1be2c89b69c2b068fc378daa952ba7f163c4a11628f55a4df523b3ef61323684611d7f565b6040516132439190614b04565b60405180910390a35050565b613257611a67565b613296576040517f08c379a000000000000000000000000000000000000000000000000000000000815260040161328d90614744565b60405180910390fd5b6000603360006101000a81548160ff0219169083151502179055507f5db9ee0a495bf2e6ff9c91a7834c1ba4fdd244a5e8aa4e537bd38aeae4b073aa6132da612cab565b6040516132e7919061460d565b60405180910390a1565b6132f9611a67565b15613339576040517f08c379a0000000000000000000000000000000000000000000000000000000008152600401613330906148c4565b60405180910390fd5b600073ffffffffffffffffffffffffffffffffffffffff168373ffffffffffffffffffffffffffffffffffffffff1614156133a9576040517f08c379a00000000000000000000000000000000000000000000000000000000081526004016133a090614884565b60405180910390fd5b600073ffffffffffffffffffffffffffffffffffffffff168273ffffffffffffffffffffffffffffffffffffffff161415613419576040517f08c379a0000000000000000000000000000000000000000000000000000000008152600401613410906149e4565b60405180910390fd5b8173ffffffffffffffffffffffffffffffffffffffff168373ffffffffffffffffffffffffffffffffffffffff161415613488576040517f08c379a000000000000000000000000000000000000000000000000000000000815260040161347f90614864565b60405180910390fd5b600061012d60008573ffffffffffffffffffffffffffffffffffffffff1673ffffffffffffffffffffffffffffffffffffffff16815260200190815260200160002054905080821115613510576040517f08c379a000000000000000000000000000000000000000000000000000000000815260040161350790614aa4565b60405180910390fd5b600061012d60008573ffffffffffffffffffffffffffffffffffffffff1673ffffffffffffffffffffffffffffffffffffffff16815260200190815260200160002054141561357857613570600161012f5461265c90919063ffffffff16565b61012f819055505b61358b828261264690919063ffffffff16565b61012d60008673ffffffffffffffffffffffffffffffffffffffff1673ffffffffffffffffffffffffffffffffffffffff168152602001908152602001600020819055506136228261012d60008673ffffffffffffffffffffffffffffffffffffffff1673ffffffffffffffffffffffffffffffffffffffff1681526020019081526020016000205461265c90919063ffffffff16565b61012d60008573ffffffffffffffffffffffffffffffffffffffff1673ffffffffffffffffffffffffffffffffffffffff16815260200190815260200160002081905550600061012d60008673ffffffffffffffffffffffffffffffffffffffff1673ffffffffffffffffffffffffffffffffffffffff1681526020019081526020016000205414156136ce576136c6600161012f5461264690919063ffffffff16565b61012f819055505b50505050565b6000426136f161013154846000015161265c90919063ffffffff16565b10159050919050565b6137048282611b6d565b613793576137298173ffffffffffffffffffffffffffffffffffffffff1660146138de565b6137378360001c60206138de565b6040516020016137489291906145d3565b6040516020818303038152906040526040517f08c379a000000000000000000000000000000000000000000000000000000000815260040161378a9190614702565b60405180910390fd5b5050565b61379f611a67565b156137df576040517f08c379a00000000000000000000000000000000000000000000000000000000081526004016137d6906148c4565b60405180910390fd5b6001603360006101000a81548160ff0219169083151502179055507f62e78cea01bee320cd4e420270b5ea74000d11b0c9f74754ebdbfc544b05a258613823612cab565b604051613830919061460d565b60405180910390a1565b6000808273ffffffffffffffffffffffffffffffffffffffff163b119050919050565b600060019054906101000a900460ff166138ac576040517f08c379a00000000000000000000000000000000000000000000000000000000081526004016138a390614a04565b60405180910390fd5b8160fe90805190602001906138c2929190613bf2565b508060ff90805190602001906138d9929190613bf2565b505050565b6060600060028360026138f19190614c8e565b6138fb9190614c07565b67ffffffffffffffff81111561393a577f4e487b7100000000000000000000000000000000000000000000000000000000600052604160045260246000fd5b6040519080825280601f01601f19166020018201604052801561396c5781602001600182028036833780820191505090505b5090507f3000000000000000000000000000000000000000000000000000000000000000816000815181106139ca577f4e487b7100000000000000000000000000000000000000000000000000000000600052603260045260246000fd5b60200101907effffffffffffffffffffffffffffffffffffffffffffffffffffffffffffff1916908160001a9053507f780000000000000000000000000000000000000000000000000000000000000081600181518110613a54577f4e487b7100000000000000000000000000000000000000000000000000000000600052603260045260246000fd5b60200101907effffffffffffffffffffffffffffffffffffffffffffffffffffffffffffff1916908160001a90535060006001846002613a949190614c8e565b613a9e9190614c07565b90505b6001811115613b8a577f3031323334353637383961626364656600000000000000000000000000000000600f861660108110613b06577f4e487b7100000000000000000000000000000000000000000000000000000000600052603260045260246000fd5b1a60f81b828281518110613b43577f4e487b7100000000000000000000000000000000000000000000000000000000600052603260045260246000fd5b60200101907effffffffffffffffffffffffffffffffffffffffffffffffffffffffffffff1916908160001a905350600485901c945080613b8390614dfe565b9050613aa1565b5060008414613bce576040517f08c379a0000000000000000000000000000000000000000000000000000000008152600401613bc590614724565b60405180910390fd5b8091505092915050565b604051806040016040528060008152602001600081525090565b828054613bfe90614e28565b90600052602060002090601f016020900481019282613c205760008555613c67565b82601f10613c3957805160ff1916838001178555613c67565b82800160010185558215613c67579182015b82811115613c66578251825591602001919060010190613c4b565b5b509050613c749190613c78565b5090565b5b80821115613c91576000816000905550600101613c79565b5090565b600081359050613ca48161554b565b92915050565b600081359050613cb981615562565b92915050565b600081359050613cce81615579565b92915050565b600081359050613ce381615590565b92915050565b600060208284031215613cfb57600080fd5b6000613d0984828501613c95565b91505092915050565b60008060408385031215613d2557600080fd5b6000613d3385828601613c95565b9250506020613d4485828601613c95565b9150509250929050565b600080600060608486031215613d6357600080fd5b6000613d7186828701613c95565b9350506020613d8286828701613c95565b9250506040613d9386828701613cd4565b9150509250925092565b60008060408385031215613db057600080fd5b6000613dbe85828601613c95565b9250506020613dcf85828601613cd4565b9150509250929050565b600080600060608486031215613dee57600080fd5b6000613dfc86828701613c95565b9350506020613e0d86828701613cd4565b9250506040613e1e86828701613cd4565b9150509250925092565b600060208284031215613e3a57600080fd5b6000613e4884828501613caa565b91505092915050565b60008060408385031215613e6457600080fd5b6000613e7285828601613caa565b9250506020613e8385828601613c95565b9150509250929050565b600060208284031215613e9f57600080fd5b6000613ead84828501613cbf565b91505092915050565b600060208284031215613ec857600080fd5b6000613ed684828501613cd4565b91505092915050565b60008060408385031215613ef257600080fd5b6000613f0085828601613cd4565b9250506020613f1185828601613cd4565b9150509250929050565b6000613f278383614562565b60408301905092915050565b6000613f3f8383614591565b60208301905092915050565b613f5481614d1c565b82525050565b6000613f6582614b83565b613f6f8185614bbe565b9350613f7a83614b63565b8060005b83811015613fab578151613f928882613f1b565b9750613f9d83614ba4565b925050600181019050613f7e565b5085935050505092915050565b6000613fc382614b8e565b613fcd8185614bcf565b9350613fd883614b73565b8060005b83811015614009578151613ff08882613f33565b9750613ffb83614bb1565b925050600181019050613fdc565b5085935050505092915050565b61401f81614d2e565b82525050565b61402e81614d3a565b82525050565b61403d81614da7565b82525050565b61404c81614db9565b82525050565b600061405d82614b99565b6140678185614beb565b9350614077818560208601614dcb565b61408081614f30565b840191505092915050565b600061409682614b99565b6140a08185614bfc565b93506140b0818560208601614dcb565b80840191505092915050565b60006140c9602083614beb565b91506140d482614f41565b602082019050919050565b60006140ec601483614beb565b91506140f782614f6a565b602082019050919050565b600061410f601883614beb565b915061411a82614f93565b602082019050919050565b6000614132600e83614beb565b915061413d82614fbc565b602082019050919050565b6000614155601583614beb565b915061416082614fe5565b602082019050919050565b6000614178602783614beb565b91506141838261500e565b604082019050919050565b600061419b601b83614beb565b91506141a68261505d565b602082019050919050565b60006141be601483614beb565b91506141c982615086565b602082019050919050565b60006141e1601983614beb565b91506141ec826150af565b602082019050919050565b6000614204601b83614beb565b915061420f826150d8565b602082019050919050565b6000614227601083614beb565b915061423282615101565b602082019050919050565b600061424a602183614beb565b91506142558261512a565b604082019050919050565b600061426d601483614beb565b915061427882615179565b602082019050919050565b6000614290601083614beb565b915061429b826151a2565b602082019050919050565b60006142b3601d83614beb565b91506142be826151cb565b602082019050919050565b60006142d6602e83614beb565b91506142e1826151f4565b604082019050919050565b60006142f9601a83614beb565b915061430482615243565b602082019050919050565b600061431c601d83614beb565b91506143278261526c565b602082019050919050565b600061433f601a83614beb565b915061434a82615295565b602082019050919050565b6000614362600f83614beb565b915061436d826152be565b602082019050919050565b6000614385601383614beb565b9150614390826152e7565b602082019050919050565b60006143a8600083614be0565b91506143b382615310565b600082019050919050565b60006143cb600f83614beb565b91506143d682615313565b602082019050919050565b60006143ee601f83614beb565b91506143f98261533c565b602082019050919050565b6000614411602b83614beb565b915061441c82615365565b604082019050919050565b6000614434600c83614beb565b915061443f826153b4565b602082019050919050565b6000614457601783614bfc565b9150614462826153dd565b601782019050919050565b600061447a600883614beb565b915061448582615406565b602082019050919050565b600061449d601f83614beb565b91506144a88261542f565b602082019050919050565b60006144c0601783614beb565b91506144cb82615458565b602082019050919050565b60006144e3601183614bfc565b91506144ee82615481565b601182019050919050565b6000614506601883614beb565b9150614511826154aa565b602082019050919050565b6000614529602f83614beb565b9150614534826154d3565b604082019050919050565b600061454c601183614beb565b915061455782615522565b602082019050919050565b6040820160008201516145786000850182614591565b50602082015161458b6020850182614591565b50505050565b61459a81614d90565b82525050565b6145a981614d90565b82525050565b6145b881614d9a565b82525050565b60006145c98261439b565b9150819050919050565b60006145de8261444a565b91506145ea828561408b565b91506145f5826144d6565b9150614601828461408b565b91508190509392505050565b60006020820190506146226000830184613f4b565b92915050565b600060408201905061463d6000830185613f4b565b61464a60208301846145a0565b9392505050565b6000604082019050818103600083015261466b8185613f5a565b9050818103602083015261467f8184613fb8565b90509392505050565b600060208201905061469d6000830184614016565b92915050565b60006020820190506146b86000830184614025565b92915050565b60006040820190506146d36000830185614034565b6146e060208301846145a0565b9392505050565b60006020820190506146fc6000830184614043565b92915050565b6000602082019050818103600083015261471c8184614052565b905092915050565b6000602082019050818103600083015261473d816140bc565b9050919050565b6000602082019050818103600083015261475d816140df565b9050919050565b6000602082019050818103600083015261477d81614102565b9050919050565b6000602082019050818103600083015261479d81614125565b9050919050565b600060208201905081810360008301526147bd81614148565b9050919050565b600060208201905081810360008301526147dd8161416b565b9050919050565b600060208201905081810360008301526147fd8161418e565b9050919050565b6000602082019050818103600083015261481d816141b1565b9050919050565b6000602082019050818103600083015261483d816141d4565b9050919050565b6000602082019050818103600083015261485d816141f7565b9050919050565b6000602082019050818103600083015261487d8161421a565b9050919050565b6000602082019050818103600083015261489d8161423d565b9050919050565b600060208201905081810360008301526148bd81614260565b9050919050565b600060208201905081810360008301526148dd81614283565b9050919050565b600060208201905081810360008301526148fd816142a6565b9050919050565b6000602082019050818103600083015261491d816142c9565b9050919050565b6000602082019050818103600083015261493d816142ec565b9050919050565b6000602082019050818103600083015261495d8161430f565b9050919050565b6000602082019050818103600083015261497d81614332565b9050919050565b6000602082019050818103600083015261499d81614355565b9050919050565b600060208201905081810360008301526149bd81614378565b9050919050565b600060208201905081810360008301526149dd816143be565b9050919050565b600060208201905081810360008301526149fd816143e1565b9050919050565b60006020820190508181036000830152614a1d81614404565b9050919050565b60006020820190508181036000830152614a3d81614427565b9050919050565b60006020820190508181036000830152614a5d8161446d565b9050919050565b60006020820190508181036000830152614a7d81614490565b9050919050565b60006020820190508181036000830152614a9d816144b3565b9050919050565b60006020820190508181036000830152614abd816144f9565b9050919050565b60006020820190508181036000830152614add8161451c565b9050919050565b60006020820190508181036000830152614afd8161453f565b9050919050565b6000602082019050614b1960008301846145a0565b92915050565b6000604082019050614b3460008301856145a0565b614b4160208301846145a0565b9392505050565b6000602082019050614b5d60008301846145af565b92915050565b6000819050602082019050919050565b6000819050602082019050919050565b600081519050919050565b600081519050919050565b600081519050919050565b6000602082019050919050565b6000602082019050919050565b600082825260208201905092915050565b600082825260208201905092915050565b600081905092915050565b600082825260208201905092915050565b600081905092915050565b6000614c1282614d90565b9150614c1d83614d90565b9250827fffffffffffffffffffffffffffffffffffffffffffffffffffffffffffffffff03821115614c5257614c51614ea3565b5b828201905092915050565b6000614c6882614d90565b9150614c7383614d90565b925082614c8357614c82614ed2565b5b828204905092915050565b6000614c9982614d90565b9150614ca483614d90565b9250817fffffffffffffffffffffffffffffffffffffffffffffffffffffffffffffffff0483118215151615614cdd57614cdc614ea3565b5b828202905092915050565b6000614cf382614d90565b9150614cfe83614d90565b925082821015614d1157614d10614ea3565b5b828203905092915050565b6000614d2782614d70565b9050919050565b60008115159050919050565b6000819050919050565b60007fffffffff0000000000000000000000000000000000000000000000000000000082169050919050565b600073ffffffffffffffffffffffffffffffffffffffff82169050919050565b6000819050919050565b600060ff82169050919050565b6000614db282614d90565b9050919050565b6000614dc482614d9a565b9050919050565b60005b83811015614de9578082015181840152602081019050614dce565b83811115614df8576000848401525b50505050565b6000614e0982614d90565b91506000821415614e1d57614e1c614ea3565b5b600182039050919050565b60006002820490506001821680614e4057607f821691505b60208210811415614e5457614e53614f01565b5b50919050565b6000614e6582614d90565b91507fffffffffffffffffffffffffffffffffffffffffffffffffffffffffffffffff821415614e9857614e97614ea3565b5b600182019050919050565b7f4e487b7100000000000000000000000000000000000000000000000000000000600052601160045260246000fd5b7f4e487b7100000000000000000000000000000000000000000000000000000000600052601260045260246000fd5b7f4e487b7100000000000000000000000000000000000000000000000000000000600052602260045260246000fd5b6000601f19601f8301169050919050565b7f537472696e67733a20686578206c656e67746820696e73756666696369656e74600082015250565b7f5061757361626c653a206e6f7420706175736564000000000000000000000000600082015250565b7f5354415254204d555354204245204245464f524520454e440000000000000000600082015250565b7f4e4f4e5f454d5054595f44415441000000000000000000000000000000000000600082015250565b7f45584348414e47452052415445204d495353494e470000000000000000000000600082015250565b7f5472616e7366657220416d6f756e7420457863656564732057616c6c6574204260008201527f616c6c616e636500000000000000000000000000000000000000000000000000602082015250565b7f4e45454420412057414c4c455420544f205245424153452042524f0000000000600082015250565b7f41564158205452414e53464552204641494c4544000000000000000000000000600082015250565b7f41414141414e44204e4f5045204e494345205452592054484f00000000000000600082015250565b7f4e4f204d494e5420544f20544845205a45524f20414444524553530000000000600082015250565b7f4e4f2053454c46205452414e5346455200000000000000000000000000000000600082015250565b7f4e4f205452414e534645522046524f4d20544845205a45524f2041444452455360008201527f5300000000000000000000000000000000000000000000000000000000000000602082015250565b7f43414e4e4f545f57495448445241575f5a45524f000000000000000000000000600082015250565b7f5061757361626c653a2070617573656400000000000000000000000000000000600082015250565b7f57495448445241575f455843454544535f4f574e45445f534841524553000000600082015250565b7f496e697469616c697a61626c653a20636f6e747261637420697320616c72656160008201527f647920696e697469616c697a6564000000000000000000000000000000000000602082015250565b7f414444524553532049532057524f4e47204d5920465249454e44000000000000600082015250565b7f4e4f20415050524f56414c2046524f4d205a45524f2041444452455353000000600082015250565b7f43414e4e4f542044454352454153452042454c4f57205a45524f000000000000600082015250565b7f4841204e49434520545259204255440000000000000000000000000000000000600082015250565b7f494e444558204f5554204f4620424f554e445300000000000000000000000000600082015250565b50565b7f4465706f7369745f69735f6e756c6c0000000000000000000000000000000000600082015250565b7f4e4f205452414e5346455220544f20544845205a45524f204144445245535300600082015250565b7f496e697469616c697a61626c653a20636f6e7472616374206973206e6f74206960008201527f6e697469616c697a696e67000000000000000000000000000000000000000000602082015250565b7f4d4159424520544d52573f3f0000000000000000000000000000000000000000600082015250565b7f416363657373436f6e74726f6c3a206163636f756e7420000000000000000000600082015250565b7f4e4f2056414c5545000000000000000000000000000000000000000000000000600082015250565b7f5265656e7472616e637947756172643a207265656e7472616e742063616c6c00600082015250565b7f4d41594245205448452057524f4e472057414c4c45543f000000000000000000600082015250565b7f206973206d697373696e6720726f6c6520000000000000000000000000000000600082015250565b7f5452414e5346455220455843454544532042414c414e43450000000000000000600082015250565b7f416363657373436f6e74726f6c3a2063616e206f6e6c792072656e6f756e636560008201527f20726f6c657320666f722073656c660000000000000000000000000000000000602082015250565b7f4d484d204e4f542048415050454e494e47000000000000000000000000000000600082015250565b61555481614d1c565b811461555f57600080fd5b50565b61556b81614d3a565b811461557657600080fd5b50565b61558281614d44565b811461558d57600080fd5b50565b61559981614d90565b81146155a457600080fd5b5056fea26469706673582212205787baee88d386674ef067e870cb947888fcb2ce06bf4a65540ac26e4ae4af9164736f6c63430008030033",
  "linkReferences": {},
  "deployedLinkReferences": {}
}