{
  "_format": "hh-sol-artifact-1",
  "contractName": "Estake",
  "sourceName": "contracts/Estake.sol",
  "abi": [
    {
      "anonymous": false,
      "inputs": [
        {
          "indexed": true,
          "internalType": "address",
          "name": "owner",
          "type": "address"
        },
        {
          "indexed": true,
          "internalType": "address",
          "name": "spender",
          "type": "address"
        },
        {
          "indexed": false,
          "internalType": "uint256",
          "name": "value",
          "type": "uint256"
        }
      ],
      "name": "Approval",
      "type": "event"
    },
    {
      "anonymous": false,
      "inputs": [
        {
          "indexed": false,
          "internalType": "uint256",
          "name": "oldPeriod",
          "type": "uint256"
        },
        {
          "indexed": false,
          "internalType": "uint256",
          "name": "newPeriod",
          "type": "uint256"
        }
      ],
      "name": "DebondageUpdated",
      "type": "event"
    },
    {
      "anonymous": false,
      "inputs": [
        {
          "indexed": false,
          "internalType": "address",
          "name": "delegator",
          "type": "address"
        },
        {
          "indexed": false,
          "internalType": "uint256",
          "name": "amount",
          "type": "uint256"
        }
      ],
      "name": "DelegationWithdrawl",
      "type": "event"
    },
    {
      "anonymous": false,
      "inputs": [
        {
          "indexed": false,
          "internalType": "uint8",
          "name": "version",
          "type": "uint8"
        }
      ],
      "name": "Initialized",
      "type": "event"
    },
    {
      "anonymous": false,
      "inputs": [
        {
          "indexed": false,
          "internalType": "address",
          "name": "account",
          "type": "address"
        }
      ],
      "name": "Paused",
      "type": "event"
    },
    {
      "anonymous": false,
      "inputs": [
        {
          "indexed": true,
          "internalType": "bytes32",
          "name": "role",
          "type": "bytes32"
        },
        {
          "indexed": true,
          "internalType": "bytes32",
          "name": "previousAdminRole",
          "type": "bytes32"
        },
        {
          "indexed": true,
          "internalType": "bytes32",
          "name": "newAdminRole",
          "type": "bytes32"
        }
      ],
      "name": "RoleAdminChanged",
      "type": "event"
    },
    {
      "anonymous": false,
      "inputs": [
        {
          "indexed": true,
          "internalType": "bytes32",
          "name": "role",
          "type": "bytes32"
        },
        {
          "indexed": true,
          "internalType": "address",
          "name": "account",
          "type": "address"
        },
        {
          "indexed": true,
          "internalType": "address",
          "name": "sender",
          "type": "address"
        }
      ],
      "name": "RoleGranted",
      "type": "event"
    },
    {
      "anonymous": false,
      "inputs": [
        {
          "indexed": true,
          "internalType": "bytes32",
          "name": "role",
          "type": "bytes32"
        },
        {
          "indexed": true,
          "internalType": "address",
          "name": "account",
          "type": "address"
        },
        {
          "indexed": true,
          "internalType": "address",
          "name": "sender",
          "type": "address"
        }
      ],
      "name": "RoleRevoked",
      "type": "event"
    },
    {
      "anonymous": false,
      "inputs": [
        {
          "indexed": true,
          "internalType": "address",
          "name": "sender",
          "type": "address"
        },
        {
          "indexed": false,
          "internalType": "uint256",
          "name": "amount",
          "type": "uint256"
        }
      ],
      "name": "Submitted",
      "type": "event"
    },
    {
      "anonymous": false,
      "inputs": [
        {
          "indexed": true,
          "internalType": "address",
          "name": "from",
          "type": "address"
        },
        {
          "indexed": true,
          "internalType": "address",
          "name": "to",
          "type": "address"
        },
        {
          "indexed": false,
          "internalType": "uint256",
          "name": "value",
          "type": "uint256"
        }
      ],
      "name": "Transfer",
      "type": "event"
    },
    {
      "anonymous": false,
      "inputs": [
        {
          "indexed": false,
          "internalType": "address",
          "name": "account",
          "type": "address"
        }
      ],
      "name": "Unpaused",
      "type": "event"
    },
    {
      "anonymous": false,
      "inputs": [
        {
          "indexed": false,
          "internalType": "address",
          "name": "depositeer",
          "type": "address"
        },
        {
          "indexed": false,
          "internalType": "uint256",
          "name": "amountDeposited",
          "type": "uint256"
        }
      ],
      "name": "UpdatedDeposit",
      "type": "event"
    },
    {
      "anonymous": false,
      "inputs": [
        {
          "indexed": false,
          "internalType": "address",
          "name": "cancellor",
          "type": "address"
        },
        {
          "indexed": false,
          "internalType": "uint256",
          "name": "timeRequested",
          "type": "uint256"
        },
        {
          "indexed": false,
          "internalType": "uint256",
          "name": "SharesCancelled",
          "type": "uint256"
        }
      ],
      "name": "WithdrawRequestCancelled",
      "type": "event"
    },
    {
      "anonymous": false,
      "inputs": [
        {
          "indexed": false,
          "internalType": "address",
          "name": "withdrawAcct",
          "type": "address"
        },
        {
          "indexed": false,
          "internalType": "uint256",
          "name": "amountAvax",
          "type": "uint256"
        }
      ],
      "name": "WithdrawRequested",
      "type": "event"
    },
    {
      "anonymous": false,
      "inputs": [
        {
          "indexed": false,
          "internalType": "uint256",
          "name": "oldPeriod",
          "type": "uint256"
        },
        {
          "indexed": false,
          "internalType": "uint256",
          "name": "newPeriod",
          "type": "uint256"
        }
      ],
      "name": "WithdrawUpdated",
      "type": "event"
    },
    {
      "anonymous": false,
      "inputs": [
        {
          "indexed": false,
          "internalType": "address",
          "name": "withdrawee",
          "type": "address"
        },
        {
          "indexed": false,
          "internalType": "uint256",
          "name": "timeRequested",
          "type": "uint256"
        },
        {
          "indexed": false,
          "internalType": "uint256",
          "name": "amountAvax",
          "type": "uint256"
        }
      ],
      "name": "Withdrawn",
      "type": "event"
    },
    {
      "inputs": [],
      "name": "AdminRole",
      "outputs": [
        {
          "internalType": "bytes32",
          "name": "",
          "type": "bytes32"
        }
      ],
      "stateMutability": "view",
      "type": "function"
    },
    {
      "inputs": [],
      "name": "DEFAULT_ADMIN_ROLE",
      "outputs": [
        {
          "internalType": "bytes32",
          "name": "",
          "type": "bytes32"
        }
      ],
      "stateMutability": "view",
      "type": "function"
    },
    {
      "inputs": [],
      "name": "DebondagePeriod",
      "outputs": [
        {
          "internalType": "uint256",
          "name": "",
          "type": "uint256"
        }
      ],
      "stateMutability": "view",
      "type": "function"
    },
    {
      "inputs": [],
      "name": "DepositRole",
      "outputs": [
        {
          "internalType": "bytes32",
          "name": "",
          "type": "bytes32"
        }
      ],
      "stateMutability": "view",
      "type": "function"
    },
    {
      "inputs": [],
      "name": "PauseRole",
      "outputs": [
        {
          "internalType": "bytes32",
          "name": "",
          "type": "bytes32"
        }
      ],
      "stateMutability": "view",
      "type": "function"
    },
    {
      "inputs": [],
      "name": "ResumeRole",
      "outputs": [
        {
          "internalType": "bytes32",
          "name": "",
          "type": "bytes32"
        }
      ],
      "stateMutability": "view",
      "type": "function"
    },
    {
      "inputs": [],
      "name": "RewardsRole",
      "outputs": [
        {
          "internalType": "bytes32",
          "name": "",
          "type": "bytes32"
        }
      ],
      "stateMutability": "view",
      "type": "function"
    },
    {
      "inputs": [],
      "name": "WithdrawRole",
      "outputs": [
        {
          "internalType": "bytes32",
          "name": "",
          "type": "bytes32"
        }
      ],
      "stateMutability": "view",
      "type": "function"
    },
    {
      "inputs": [],
      "name": "WithdrawWindow",
      "outputs": [
        {
          "internalType": "uint256",
          "name": "",
          "type": "uint256"
        }
      ],
      "stateMutability": "view",
      "type": "function"
    },
    {
      "inputs": [
        {
          "internalType": "uint256",
          "name": "amount",
          "type": "uint256"
        }
      ],
      "name": "accrueRewards",
      "outputs": [],
      "stateMutability": "nonpayable",
      "type": "function"
    },
    {
      "inputs": [
        {
          "internalType": "address",
          "name": "",
          "type": "address"
        }
      ],
      "name": "acctSharesHeld",
      "outputs": [
        {
          "internalType": "uint256",
          "name": "",
          "type": "uint256"
        }
      ],
      "stateMutability": "view",
      "type": "function"
    },
    {
      "inputs": [
        {
          "internalType": "address",
          "name": "",
          "type": "address"
        },
        {
          "internalType": "uint256",
          "name": "",
          "type": "uint256"
        }
      ],
      "name": "acctWithdrawRequestArray",
      "outputs": [
        {
          "internalType": "uint256",
          "name": "requestTime",
          "type": "uint256"
        },
        {
          "internalType": "uint256",
          "name": "withdrawAmount",
          "type": "uint256"
        }
      ],
      "stateMutability": "view",
      "type": "function"
    },
    {
      "inputs": [
        {
          "internalType": "address",
          "name": "owner",
          "type": "address"
        },
        {
          "internalType": "address",
          "name": "spender",
          "type": "address"
        }
      ],
      "name": "allowance",
      "outputs": [
        {
          "internalType": "uint256",
          "name": "",
          "type": "uint256"
        }
      ],
      "stateMutability": "view",
      "type": "function"
    },
    {
      "inputs": [
        {
          "internalType": "address",
          "name": "spender",
          "type": "address"
        },
        {
          "internalType": "uint256",
          "name": "amount",
          "type": "uint256"
        }
      ],
      "name": "approve",
      "outputs": [
        {
          "internalType": "bool",
          "name": "",
          "type": "bool"
        }
      ],
      "stateMutability": "nonpayable",
      "type": "function"
    },
    {
      "inputs": [
        {
          "internalType": "address",
          "name": "account",
          "type": "address"
        }
      ],
      "name": "balanceOf",
      "outputs": [
        {
          "internalType": "uint256",
          "name": "",
          "type": "uint256"
        }
      ],
      "stateMutability": "view",
      "type": "function"
    },
    {
      "inputs": [],
      "name": "decimals",
      "outputs": [
        {
          "internalType": "uint8",
          "name": "",
          "type": "uint8"
        }
      ],
      "stateMutability": "pure",
      "type": "function"
    },
    {
      "inputs": [
        {
          "internalType": "address",
          "name": "_spender",
          "type": "address"
        },
        {
          "internalType": "uint256",
          "name": "subtractedAmount",
          "type": "uint256"
        }
      ],
      "name": "decreaseAllowance",
      "outputs": [
        {
          "internalType": "bool",
          "name": "",
          "type": "bool"
        }
      ],
      "stateMutability": "nonpayable",
      "type": "function"
    },
    {
      "inputs": [
        {
          "internalType": "uint256",
          "name": "receiptIndex",
          "type": "uint256"
        }
      ],
      "name": "depositToCloseReciepts",
      "outputs": [],
      "stateMutability": "payable",
      "type": "function"
    },
    {
      "inputs": [
        {
          "internalType": "address",
          "name": "acct",
          "type": "address"
        }
      ],
      "name": "getAcctRequests",
      "outputs": [
        {
          "internalType": "uint256",
          "name": "",
          "type": "uint256"
        }
      ],
      "stateMutability": "view",
      "type": "function"
    },
    {
      "inputs": [],
      "name": "getAvailableAvaxtoDelegate",
      "outputs": [
        {
          "internalType": "uint256",
          "name": "sharesAvailable",
          "type": "uint256"
        }
      ],
      "stateMutability": "view",
      "type": "function"
    },
    {
      "inputs": [],
      "name": "getCurrStakeAccts",
      "outputs": [
        {
          "internalType": "uint256",
          "name": "",
          "type": "uint256"
        }
      ],
      "stateMutability": "view",
      "type": "function"
    },
    {
      "inputs": [
        {
          "internalType": "uint256",
          "name": "sharesAmount",
          "type": "uint256"
        }
      ],
      "name": "getPooledAvaxfromShares",
      "outputs": [
        {
          "internalType": "uint256",
          "name": "",
          "type": "uint256"
        }
      ],
      "stateMutability": "view",
      "type": "function"
    },
    {
      "inputs": [
        {
          "internalType": "bytes32",
          "name": "role",
          "type": "bytes32"
        }
      ],
      "name": "getRoleAdmin",
      "outputs": [
        {
          "internalType": "bytes32",
          "name": "",
          "type": "bytes32"
        }
      ],
      "stateMutability": "view",
      "type": "function"
    },
    {
      "inputs": [
        {
          "internalType": "uint256",
          "name": "_amountAvax",
          "type": "uint256"
        }
      ],
      "name": "getSharesFromStakedAvax",
      "outputs": [
        {
          "internalType": "uint256",
          "name": "",
          "type": "uint256"
        }
      ],
      "stateMutability": "view",
      "type": "function"
    },
    {
      "inputs": [],
      "name": "getSupply",
      "outputs": [
        {
          "internalType": "uint256",
          "name": "",
          "type": "uint256"
        }
      ],
      "stateMutability": "view",
      "type": "function"
    },
    {
      "inputs": [],
      "name": "getTotalAvaxPooled",
      "outputs": [
        {
          "internalType": "uint256",
          "name": "",
          "type": "uint256"
        }
      ],
      "stateMutability": "view",
      "type": "function"
    },
    {
      "inputs": [],
      "name": "getTotalShares",
      "outputs": [
        {
          "internalType": "uint256",
          "name": "",
          "type": "uint256"
        }
      ],
      "stateMutability": "view",
      "type": "function"
    },
    {
      "inputs": [],
      "name": "getTotalSupply",
      "outputs": [
        {
          "internalType": "uint256",
          "name": "",
          "type": "uint256"
        }
      ],
      "stateMutability": "view",
      "type": "function"
    },
    {
      "inputs": [
        {
          "internalType": "bytes32",
          "name": "role",
          "type": "bytes32"
        },
        {
          "internalType": "address",
          "name": "account",
          "type": "address"
        }
      ],
      "name": "grantRole",
      "outputs": [],
      "stateMutability": "nonpayable",
      "type": "function"
    },
    {
      "inputs": [
        {
          "internalType": "bytes32",
          "name": "role",
          "type": "bytes32"
        },
        {
          "internalType": "address",
          "name": "account",
          "type": "address"
        }
      ],
      "name": "hasRole",
      "outputs": [
        {
          "internalType": "bool",
          "name": "",
          "type": "bool"
        }
      ],
      "stateMutability": "view",
      "type": "function"
    },
    {
      "inputs": [
        {
          "internalType": "address",
          "name": "_spender",
          "type": "address"
        },
        {
          "internalType": "uint256",
          "name": "addedAmount",
          "type": "uint256"
        }
      ],
      "name": "increaseAllowance",
      "outputs": [
        {
          "internalType": "bool",
          "name": "",
          "type": "bool"
        }
      ],
      "stateMutability": "nonpayable",
      "type": "function"
    },
    {
      "inputs": [
        {
          "internalType": "uint256",
          "name": "_withdrawWindow",
          "type": "uint256"
        },
        {
          "internalType": "uint256",
          "name": "_debondageWindow",
          "type": "uint256"
        }
      ],
      "name": "initialize",
      "outputs": [],
      "stateMutability": "nonpayable",
      "type": "function"
    },
    {
      "inputs": [],
      "name": "name",
      "outputs": [
        {
          "internalType": "string",
          "name": "",
          "type": "string"
        }
      ],
      "stateMutability": "pure",
      "type": "function"
    },
    {
      "inputs": [
        {
          "internalType": "address",
          "name": "",
          "type": "address"
        },
        {
          "internalType": "uint256",
          "name": "",
          "type": "uint256"
        }
      ],
      "name": "outstandingWithdrawlReciepts",
      "outputs": [
        {
          "internalType": "uint256",
          "name": "withdrawlTime",
          "type": "uint256"
        },
        {
          "internalType": "uint256",
          "name": "amountOwed",
          "type": "uint256"
        }
      ],
      "stateMutability": "view",
      "type": "function"
    },
    {
      "inputs": [],
      "name": "pause",
      "outputs": [],
      "stateMutability": "nonpayable",
      "type": "function"
    },
    {
      "inputs": [],
      "name": "paused",
      "outputs": [
        {
          "internalType": "bool",
          "name": "",
          "type": "bool"
        }
      ],
      "stateMutability": "view",
      "type": "function"
    },
    {
      "inputs": [
        {
          "internalType": "bytes32",
          "name": "role",
          "type": "bytes32"
        },
        {
          "internalType": "address",
          "name": "account",
          "type": "address"
        }
      ],
      "name": "renounceRole",
      "outputs": [],
      "stateMutability": "nonpayable",
      "type": "function"
    },
    {
      "inputs": [],
      "name": "resume",
      "outputs": [],
      "stateMutability": "nonpayable",
      "type": "function"
    },
    {
      "inputs": [
        {
          "internalType": "address",
          "name": "acct",
          "type": "address"
        },
        {
          "internalType": "uint256",
          "name": "start",
          "type": "uint256"
        },
        {
          "internalType": "uint256",
          "name": "end",
          "type": "uint256"
        }
      ],
      "name": "retrieveAcctRequestesEnumerated",
      "outputs": [
        {
          "components": [
            {
              "internalType": "uint256",
              "name": "requestTime",
              "type": "uint256"
            },
            {
              "internalType": "uint256",
              "name": "withdrawAmount",
              "type": "uint256"
            }
          ],
          "internalType": "struct Estake.withdrawRequest[]",
          "name": "",
          "type": "tuple[]"
        }
      ],
      "stateMutability": "view",
      "type": "function"
    },
    {
      "inputs": [
        {
          "internalType": "bytes32",
          "name": "role",
          "type": "bytes32"
        },
        {
          "internalType": "address",
          "name": "account",
          "type": "address"
        }
      ],
      "name": "revokeRole",
      "outputs": [],
      "stateMutability": "nonpayable",
      "type": "function"
    },
    {
      "inputs": [
        {
          "internalType": "uint256",
          "name": "newDebondagePeriod",
          "type": "uint256"
        }
      ],
      "name": "setDebondagePeriod",
      "outputs": [],
      "stateMutability": "nonpayable",
      "type": "function"
    },
    {
      "inputs": [
        {
          "internalType": "uint256",
          "name": "newWindow",
          "type": "uint256"
        }
      ],
      "name": "setNewWithdrawWindow",
      "outputs": [],
      "stateMutability": "nonpayable",
      "type": "function"
    },
    {
      "inputs": [
        {
          "internalType": "address",
          "name": "account",
          "type": "address"
        }
      ],
      "name": "sharesOf",
      "outputs": [
        {
          "internalType": "uint256",
          "name": "",
          "type": "uint256"
        }
      ],
      "stateMutability": "view",
      "type": "function"
    },
    {
      "inputs": [],
      "name": "stake",
      "outputs": [
        {
          "internalType": "uint256",
          "name": "",
          "type": "uint256"
        }
      ],
      "stateMutability": "payable",
      "type": "function"
    },
    {
      "inputs": [
        {
          "internalType": "bytes4",
          "name": "interfaceId",
          "type": "bytes4"
        }
      ],
      "name": "supportsInterface",
      "outputs": [
        {
          "internalType": "bool",
          "name": "",
          "type": "bool"
        }
      ],
      "stateMutability": "view",
      "type": "function"
    },
    {
      "inputs": [],
      "name": "symbol",
      "outputs": [
        {
          "internalType": "string",
          "name": "",
          "type": "string"
        }
      ],
      "stateMutability": "pure",
      "type": "function"
    },
    {
      "inputs": [],
      "name": "totalSupply",
      "outputs": [
        {
          "internalType": "uint256",
          "name": "",
          "type": "uint256"
        }
      ],
      "stateMutability": "view",
      "type": "function"
    },
    {
      "inputs": [
        {
          "internalType": "address",
          "name": "reciver",
          "type": "address"
        },
        {
          "internalType": "uint256",
          "name": "amount",
          "type": "uint256"
        }
      ],
      "name": "transfer",
      "outputs": [
        {
          "internalType": "bool",
          "name": "",
          "type": "bool"
        }
      ],
      "stateMutability": "nonpayable",
      "type": "function"
    },
    {
      "inputs": [
        {
          "internalType": "address",
          "name": "_sender",
          "type": "address"
        },
        {
          "internalType": "address",
          "name": "reciver",
          "type": "address"
        },
        {
          "internalType": "uint256",
          "name": "amount",
          "type": "uint256"
        }
      ],
      "name": "transferFrom",
      "outputs": [
        {
          "internalType": "bool",
          "name": "",
          "type": "bool"
        }
      ],
      "stateMutability": "nonpayable",
      "type": "function"
    },
    {
      "inputs": [
        {
          "internalType": "uint256",
          "name": "amountShares",
          "type": "uint256"
        }
      ],
      "name": "withdraw",
      "outputs": [],
      "stateMutability": "nonpayable",
      "type": "function"
    },
    {
      "inputs": [
        {
          "internalType": "uint256",
          "name": "avaxAmount",
          "type": "uint256"
        }
      ],
      "name": "withdrawForDelegation",
      "outputs": [],
      "stateMutability": "nonpayable",
      "type": "function"
    },
    {
      "stateMutability": "payable",
      "type": "receive"
    }
  ],
  "bytecode": "0x608060405234801561001057600080fd5b506158c480620000216000396000f3fe6080604052600436106102e85760003560e01c806370a0823111610190578063c4e41b22116100dc578063e46ee60b11610095578063f008060a1161006f578063f008060a14610bbd578063f5eb42dc14610be8578063f8cb5eb414610c25578063fa06e10714610c62576102f8565b8063e46ee60b14610b2b578063e4a3011614610b69578063e7d9d9fc14610b92576102f8565b8063c4e41b2214610a09578063ce5da6a614610a34578063d5002f2e14610a71578063d547741f14610a9c578063dd62ed3e14610ac5578063e1a472b914610b02576102f8565b806395d89b4111610149578063a9059cbb11610123578063a9059cbb1461094b578063b20e16c914610988578063b306c84d146109b3578063ba718c8f146109de576102f8565b806395d89b41146108b8578063a217fddf146108e3578063a457c2d71461090e576102f8565b806370a08231146107a657806383c2cfe6146107e3578063840b20f91461080e5780638456cb59146108395780638910e1ed1461085057806391d148541461087b576102f8565b80632e0292171161024f57806339509351116102085780634db140ca116101e25780634db140ca146106fc5780635210cf38146107255780635c975abb146107505780636c9c2faf1461077b576102f8565b806339509351146106645780633a4b66f1146106a157806348ce74fa146106bf576102f8565b80632e029217146105565780632e1a7d4d146105935780632f2ff15d146105bc578063313ce567146105e557806336568abe1461061057806338906ada14610639576102f8565b8063102a3436116102a1578063102a34361461042057806318160ddd1461045d5780632352ffd31461048857806323b872dd146104b3578063248a9ca3146104f05780632d2b8ea41461052d576102f8565b806301ffc9a7146102fd578063046f7da21461033a57806306fdde0314610351578063095ea7b31461037c5780630b56d74d146103b95780630fbfccbb146103e2576102f8565b366102f8576102f5610c7e565b50005b600080fd5b34801561030957600080fd5b50610324600480360381019061031f91906141cc565b610cd6565b604051610331919061495f565b60405180910390f35b34801561034657600080fd5b5061034f610d50565b005b34801561035d57600080fd5b50610366610dc3565b60405161037391906149d9565b60405180910390f35b34801561038857600080fd5b506103a3600480360381019061039e91906140dc565b610e00565b6040516103b0919061495f565b60405180910390f35b3480156103c557600080fd5b506103e060048036038101906103db91906141f5565b610e17565b005b3480156103ee57600080fd5b50610409600480360381019061040491906140dc565b610ecd565b604051610417929190614e16565b60405180910390f35b34801561042c57600080fd5b5061044760048036038101906104429190614028565b610f0f565b6040516104549190614dfb565b60405180910390f35b34801561046957600080fd5b50610472610f28565b60405161047f9190614dfb565b60405180910390f35b34801561049457600080fd5b5061049d610f37565b6040516104aa919061497a565b60405180910390f35b3480156104bf57600080fd5b506104da60048036038101906104d5919061408d565b610f5b565b6040516104e7919061495f565b60405180910390f35b3480156104fc57600080fd5b5061051760048036038101906105129190614167565b611055565b604051610524919061497a565b60405180910390f35b34801561053957600080fd5b50610554600480360381019061054f91906141f5565b611075565b005b34801561056257600080fd5b5061057d60048036038101906105789190614118565b61138b565b60405161058a919061493d565b60405180910390f35b34801561059f57600080fd5b506105ba60048036038101906105b591906141f5565b6116ad565b005b3480156105c857600080fd5b506105e360048036038101906105de9190614190565b6116b9565b005b3480156105f157600080fd5b506105fa6116da565b6040516106079190614e3f565b60405180910390f35b34801561061c57600080fd5b5061063760048036038101906106329190614190565b6116e3565b005b34801561064557600080fd5b5061064e611766565b60405161065b919061497a565b60405180910390f35b34801561067057600080fd5b5061068b600480360381019061068691906140dc565b61178a565b604051610698919061495f565b60405180910390f35b6106a9611830565b6040516106b69190614dfb565b60405180910390f35b3480156106cb57600080fd5b506106e660048036038101906106e191906141f5565b61183f565b6040516106f39190614dfb565b60405180910390f35b34801561070857600080fd5b50610723600480360381019061071e91906141f5565b611894565b005b34801561073157600080fd5b5061073a61194a565b6040516107479190614dfb565b60405180910390f35b34801561075c57600080fd5b50610765611955565b604051610772919061495f565b60405180910390f35b34801561078757600080fd5b5061079061196c565b60405161079d9190614dfb565b60405180910390f35b3480156107b257600080fd5b506107cd60048036038101906107c89190614028565b611977565b6040516107da9190614dfb565b60405180910390f35b3480156107ef57600080fd5b506107f8611991565b604051610805919061497a565b60405180910390f35b34801561081a57600080fd5b506108236119b5565b6040516108309190614dfb565b60405180910390f35b34801561084557600080fd5b5061084e6119c4565b005b34801561085c57600080fd5b50610865611a37565b604051610872919061497a565b60405180910390f35b34801561088757600080fd5b506108a2600480360381019061089d9190614190565b611a5b565b6040516108af919061495f565b60405180910390f35b3480156108c457600080fd5b506108cd611ac6565b6040516108da91906149d9565b60405180910390f35b3480156108ef57600080fd5b506108f8611b03565b604051610905919061497a565b60405180910390f35b34801561091a57600080fd5b50610935600480360381019061093091906140dc565b611b0a565b604051610942919061495f565b60405180910390f35b34801561095757600080fd5b50610972600480360381019061096d91906140dc565b611bf8565b60405161097f919061495f565b60405180910390f35b34801561099457600080fd5b5061099d611c0f565b6040516109aa919061497a565b60405180910390f35b3480156109bf57600080fd5b506109c8611c33565b6040516109d59190614dfb565b60405180910390f35b3480156109ea57600080fd5b506109f3611c3a565b604051610a00919061497a565b60405180910390f35b348015610a1557600080fd5b50610a1e611c5e565b604051610a2b9190614dfb565b60405180910390f35b348015610a4057600080fd5b50610a5b6004803603810190610a5691906141f5565b611c6d565b604051610a689190614dfb565b60405180910390f35b348015610a7d57600080fd5b50610a86611cc2565b604051610a939190614dfb565b60405180910390f35b348015610aa857600080fd5b50610ac36004803603810190610abe9190614190565b611cd1565b005b348015610ad157600080fd5b50610aec6004803603810190610ae79190614051565b611cf2565b604051610af99190614dfb565b60405180910390f35b348015610b0e57600080fd5b50610b296004803603810190610b2491906141f5565b611d7a565b005b348015610b3757600080fd5b50610b526004803603810190610b4d91906140dc565b611eb1565b604051610b60929190614e16565b60405180910390f35b348015610b7557600080fd5b50610b906004803603810190610b8b919061421e565b611ef3565b005b348015610b9e57600080fd5b50610ba76120a3565b604051610bb49190614dfb565b60405180910390f35b348015610bc957600080fd5b50610bd26120aa565b604051610bdf9190614dfb565b60405180910390f35b348015610bf457600080fd5b50610c0f6004803603810190610c0a9190614028565b61217d565b604051610c1c9190614dfb565b60405180910390f35b348015610c3157600080fd5b50610c4c6004803603810190610c479190614028565b61218f565b604051610c599190614dfb565b60405180910390f35b610c7c6004803603810190610c7791906141f5565b6121dc565b005b600080600036905014610cc6576040517f08c379a0000000000000000000000000000000000000000000000000000000008152600401610cbd90614a7b565b60405180910390fd5b610cce612681565b506001905090565b60007f7965db0b000000000000000000000000000000000000000000000000000000007bffffffffffffffffffffffffffffffffffffffffffffffffffffffff1916827bffffffffffffffffffffffffffffffffffffffffffffffffffffffff19161480610d495750610d488261275b565b5b9050919050565b610d7a7f2fc10cc8ae19568712f7a176fb4978616a610650813c9d05326c34abb62749c733611a5b565b610db9576040517f08c379a0000000000000000000000000000000000000000000000000000000008152600401610db090614c7b565b60405180910390fd5b610dc16127c5565b565b60606040518060400160405280600b81526020017f457374616b656441766178000000000000000000000000000000000000000000815250905090565b6000610e0d3384846127cf565b6001905092915050565b610e417f0cf3ab891c58979bce2fd6ff905f74d3f487e7773b32cd9b7ad636074af2b54d33611a5b565b610e80576040517f08c379a0000000000000000000000000000000000000000000000000000000008152600401610e7790614d7b565b60405180910390fd5b600061013154905081610131819055507ff3d617f29718a874373330d8af868bc198e4b32a293ff283c11c2e31bfb133f28183604051610ec1929190614e16565b60405180910390a15050565b6101356020528160005260406000208181548110610eea57600080fd5b9060005260206000209060020201600091509150508060000154908060010154905082565b6101346020528060005260406000206000915090505481565b6000610f326129e3565b905090565b7f5d8e12c39142ff96d79d04d15d1ba1269e4fe57bb9d26f43523628b34ba108ec81565b60008061012e60008673ffffffffffffffffffffffffffffffffffffffff1673ffffffffffffffffffffffffffffffffffffffff16815260200190815260200160002060003373ffffffffffffffffffffffffffffffffffffffff1673ffffffffffffffffffffffffffffffffffffffff16815260200190815260200160002054905082811015611021576040517f08c379a000000000000000000000000000000000000000000000000000000000815260040161101890614a9b565b60405180910390fd5b61102c858585612a18565b61104985336110448685612a9b90919063ffffffff16565b6127cf565b60019150509392505050565b600060c96000838152602001908152602001600020600101549050919050565b600260655414156110bb576040517f08c379a00000000000000000000000000000000000000000000000000000000081526004016110b290614d5b565b60405180910390fd5b60026065819055506110ed7f5d8e12c39142ff96d79d04d15d1ba1269e4fe57bb9d26f43523628b34ba108ec33611a5b565b61112c576040517f08c379a000000000000000000000000000000000000000000000000000000000815260040161112390614bfb565b60405180910390fd5b61013560003373ffffffffffffffffffffffffffffffffffffffff1673ffffffffffffffffffffffffffffffffffffffff16815260200190815260200160002060405180604001604052804281526020018381525090806001815401808255809150506001900390600052602060002090600202016000909190919091506000820151816000015560208201518160010155505061122d6111fe826111f07fb1e879708bccec89cde8cf4b6203a37c355c0e51316275a78eff20cae7661ca4612ab1565b612abc90919063ffffffff16565b7fb1e879708bccec89cde8cf4b6203a37c355c0e51316275a78eff20cae7661ca4612ad290919063ffffffff16565b61129a61126b8261125d7f695672e264d4ed6756d0d51237a754983a90228e98417d3cf96ee34fde578f53612ab1565b612a9b90919063ffffffff16565b7f695672e264d4ed6756d0d51237a754983a90228e98417d3cf96ee34fde578f53612ad290919063ffffffff16565b60003373ffffffffffffffffffffffffffffffffffffffff16826040516112c0906148aa565b60006040518083038185875af1925050503d80600081146112fd576040519150601f19603f3d011682016040523d82523d6000602084013e611302565b606091505b5050905080611346576040517f08c379a000000000000000000000000000000000000000000000000000000000815260040161133d90614adb565b60405180910390fd5b7fbefa55ffc938d1c0961c65392d9ba7ecc46d37bab46137d6155599e14b080b6f3383604051611377929190614914565b60405180910390a150600160658190555050565b606061013360008573ffffffffffffffffffffffffffffffffffffffff1673ffffffffffffffffffffffffffffffffffffffff168152602001908152602001600020805490508310611412576040517f08c379a000000000000000000000000000000000000000000000000000000000815260040161140990614c9b565b60405180910390fd5b818310611454576040517f08c379a000000000000000000000000000000000000000000000000000000000815260040161144b90614a5b565b60405180910390fd5b61013360008573ffffffffffffffffffffffffffffffffffffffff1673ffffffffffffffffffffffffffffffffffffffff168152602001908152602001600020805490508311156114e65761013360008573ffffffffffffffffffffffffffffffffffffffff1673ffffffffffffffffffffffffffffffffffffffff1681526020019081526020016000208054905092505b60006114fb8484612a9b90919063ffffffff16565b67ffffffffffffffff81111561153a577f4e487b7100000000000000000000000000000000000000000000000000000000600052604160045260246000fd5b60405190808252806020026020018201604052801561157357816020015b611560613f17565b8152602001906001900390816115585790505b50905060005b61158c8585612a9b90919063ffffffff16565b8110156116a15761013360008773ffffffffffffffffffffffffffffffffffffffff1673ffffffffffffffffffffffffffffffffffffffff1681526020019081526020016000206115e68287612abc90919063ffffffff16565b8154811061161d577f4e487b7100000000000000000000000000000000000000000000000000000000600052603260045260246000fd5b906000526020600020906002020160405180604001604052908160008201548152602001600182015481525050828281518110611683577f4e487b7100000000000000000000000000000000000000000000000000000000600052603260045260246000fd5b6020026020010181905250808061169990615118565b915050611579565b50809150509392505050565b6116b681612ad9565b50565b6116c282611055565b6116cb81612dec565b6116d58383612e00565b505050565b60006012905090565b6116eb612ee1565b73ffffffffffffffffffffffffffffffffffffffff168173ffffffffffffffffffffffffffffffffffffffff1614611758576040517f08c379a000000000000000000000000000000000000000000000000000000000815260040161174f90614dbb565b60405180910390fd5b6117628282612ee9565b5050565b7f139c2898040ef16910dc9f44dc697df79363da767d8bc92f2e310312b816e46d81565b600061182633846118218561012e60003373ffffffffffffffffffffffffffffffffffffffff1673ffffffffffffffffffffffffffffffffffffffff16815260200190815260200160002060008973ffffffffffffffffffffffffffffffffffffffff1673ffffffffffffffffffffffffffffffffffffffff16815260200190815260200160002054612abc90919063ffffffff16565b6127cf565b6001905092915050565b600061183a612681565b905090565b60008061184a6119b5565b9050600081141561185f57600091505061188f565b61188b8161187d61186e611cc2565b86612fcb90919063ffffffff16565b612fe190919063ffffffff16565b9150505b919050565b6118be7f0cf3ab891c58979bce2fd6ff905f74d3f487e7773b32cd9b7ad636074af2b54d33611a5b565b6118fd576040517f08c379a00000000000000000000000000000000000000000000000000000000081526004016118f490614afb565b60405180910390fd5b600061013254905081610132819055507faf230d1b6e7d235758ae04cb640156917b958bab6188ad5dfbfb8799c9e91d0b818360405161193e929190614e16565b60405180910390a15050565b600061012f54905090565b6000603360009054906101000a900460ff16905090565b600061013054905090565b600061198a61198583612ff7565b611c6d565b9050919050565b7f2561bf26f818282a3be40719542054d2173eb0d38539e8a8d3cff22f29fd238481565b60006119bf6129e3565b905090565b6119ee7f139c2898040ef16910dc9f44dc697df79363da767d8bc92f2e310312b816e46d33611a5b565b611a2d576040517f08c379a0000000000000000000000000000000000000000000000000000000008152600401611a2490614ddb565b60405180910390fd5b611a35613041565b565b7f0cf3ab891c58979bce2fd6ff905f74d3f487e7773b32cd9b7ad636074af2b54d81565b600060c9600084815260200190815260200160002060000160008373ffffffffffffffffffffffffffffffffffffffff1673ffffffffffffffffffffffffffffffffffffffff16815260200190815260200160002060009054906101000a900460ff16905092915050565b60606040518060400160405280600681526020017f6573415641580000000000000000000000000000000000000000000000000000815250905090565b6000801b81565b60008061012e60003373ffffffffffffffffffffffffffffffffffffffff1673ffffffffffffffffffffffffffffffffffffffff16815260200190815260200160002060008573ffffffffffffffffffffffffffffffffffffffff1673ffffffffffffffffffffffffffffffffffffffff16815260200190815260200160002054905082811015611bd0576040517f08c379a0000000000000000000000000000000000000000000000000000000008152600401611bc790614c3b565b60405180910390fd5b611bed3385611be88685612a9b90919063ffffffff16565b6127cf565b600191505092915050565b6000611c05338484612a18565b6001905092915050565b7f5407862f04286ebe607684514c14b7fffc750b6bf52ba44ea49569174845a5bd81565b6101315481565b7f2fc10cc8ae19568712f7a176fb4978616a610650813c9d05326c34abb62749c781565b6000611c686129e3565b905090565b600080611c7861304b565b90506000811415611c8d576000915050611cbd565b611cb981611cab611c9c6129e3565b86612fcb90919063ffffffff16565b612fe190919063ffffffff16565b9150505b919050565b6000611ccc61304b565b905090565b611cda82611055565b611ce381612dec565b611ced8383612ee9565b505050565b600061012e60008473ffffffffffffffffffffffffffffffffffffffff1673ffffffffffffffffffffffffffffffffffffffff16815260200190815260200160002060008373ffffffffffffffffffffffffffffffffffffffff1673ffffffffffffffffffffffffffffffffffffffff16815260200190815260200160002054905092915050565b60026065541415611dc0576040517f08c379a0000000000000000000000000000000000000000000000000000000008152600401611db790614d5b565b60405180910390fd5b6002606581905550611df27f5407862f04286ebe607684514c14b7fffc750b6bf52ba44ea49569174845a5bd33611a5b565b611e31576040517f08c379a0000000000000000000000000000000000000000000000000000000008152600401611e2890614abb565b60405180910390fd5b611e9e611e6f82611e617f695672e264d4ed6756d0d51237a754983a90228e98417d3cf96ee34fde578f53612ab1565b612abc90919063ffffffff16565b7f695672e264d4ed6756d0d51237a754983a90228e98417d3cf96ee34fde578f53612ad290919063ffffffff16565b611ea661307b565b600160658190555050565b6101336020528160005260406000208181548110611ece57600080fd5b9060005260206000209060020201600091509150508060000154908060010154905082565b6000611eff6001613112565b90508015611f23576001600060016101000a81548160ff0219169083151502179055505b611f976040518060400160405280600681526020017f457374616b6500000000000000000000000000000000000000000000000000008152506040518060400160405280600681526020017f6573415641580000000000000000000000000000000000000000000000000000815250613202565b611fc17f0cf3ab891c58979bce2fd6ff905f74d3f487e7773b32cd9b7ad636074af2b54d3361325f565b82610132819055507faf230d1b6e7d235758ae04cb640156917b958bab6188ad5dfbfb8799c9e91d0b600084604051611ffb929190614995565b60405180910390a181610131819055507ff3d617f29718a874373330d8af868bc198e4b32a293ff283c11c2e31bfb133f260008360405161203d929190614995565b60405180910390a1801561209e5760008060016101000a81548160ff0219169083151502179055507f7f26b83ff96e1f2b6a682f133852f6798a09c465da95921460cefb3847402498600160405161209591906149be565b60405180910390a15b505050565b6101325481565b60006120d67f2561bf26f818282a3be40719542054d2173eb0d38539e8a8d3cff22f29fd238433611a5b565b612115576040517f08c379a000000000000000000000000000000000000000000000000000000000815260040161210c906149fb565b60405180910390fd5b6121786121417f8e8c5cc9e169474309ddd619eade97d9ef92133491020f0fcc80ff18d2efbab8612ab1565b61216a7f695672e264d4ed6756d0d51237a754983a90228e98417d3cf96ee34fde578f53612ab1565b612a9b90919063ffffffff16565b905090565b600061218882612ff7565b9050919050565b600061013360008373ffffffffffffffffffffffffffffffffffffffff1673ffffffffffffffffffffffffffffffffffffffff168152602001908152602001600020805490509050919050565b6122067f2561bf26f818282a3be40719542054d2173eb0d38539e8a8d3cff22f29fd238433611a5b565b612245576040517f08c379a000000000000000000000000000000000000000000000000000000000815260040161223c90614d1b565b60405180910390fd5b60003411612288576040517f08c379a000000000000000000000000000000000000000000000000000000000815260040161227f90614d3b565b60405180910390fd5b61013560003373ffffffffffffffffffffffffffffffffffffffff1673ffffffffffffffffffffffffffffffffffffffff1681526020019081526020016000208181548110612300577f4e487b7100000000000000000000000000000000000000000000000000000000600052603260045260246000fd5b9060005260206000209060020201600101543414612353576040517f08c379a000000000000000000000000000000000000000000000000000000000815260040161234a90614c5b565b60405180910390fd5b61013560003373ffffffffffffffffffffffffffffffffffffffff1673ffffffffffffffffffffffffffffffffffffffff1681526020019081526020016000206123ea600161013560003373ffffffffffffffffffffffffffffffffffffffff1673ffffffffffffffffffffffffffffffffffffffff16815260200190815260200160002080549050612a9b90919063ffffffff16565b81548110612421577f4e487b7100000000000000000000000000000000000000000000000000000000600052603260045260246000fd5b906000526020600020906002020161013560003373ffffffffffffffffffffffffffffffffffffffff1673ffffffffffffffffffffffffffffffffffffffff16815260200190815260200160002082815481106124a7577f4e487b7100000000000000000000000000000000000000000000000000000000600052603260045260246000fd5b9060005260206000209060020201600082015481600001556001820154816001015590505061013560003373ffffffffffffffffffffffffffffffffffffffff1673ffffffffffffffffffffffffffffffffffffffff168152602001908152602001600020805480612542577f4e487b7100000000000000000000000000000000000000000000000000000000600052603160045260246000fd5b60019003818190600052602060002090600202016000808201600090556001820160009055505090556125d86125a93461259b7fb1e879708bccec89cde8cf4b6203a37c355c0e51316275a78eff20cae7661ca4612ab1565b612a9b90919063ffffffff16565b7fb1e879708bccec89cde8cf4b6203a37c355c0e51316275a78eff20cae7661ca4612ad290919063ffffffff16565b612645612616346126087f695672e264d4ed6756d0d51237a754983a90228e98417d3cf96ee34fde578f53612ab1565b612abc90919063ffffffff16565b7f695672e264d4ed6756d0d51237a754983a90228e98417d3cf96ee34fde578f53612ad290919063ffffffff16565b7ffe2f45bbf481fc5c0b0eea204191762a096ba36d585bfc99c98b07eeaa8305393334604051612676929190614914565b60405180910390a150565b600061268b611955565b156126cb576040517f08c379a00000000000000000000000000000000000000000000000000000000081526004016126c290614b9b565b60405180910390fd5b600033905060003490506000811415612719576040517f08c379a000000000000000000000000000000000000000000000000000000000815260040161271090614cbb565b60405180910390fd5b60006127248261183f565b90506000811415612733578190505b61273d838261326d565b50612748838361347b565b6127528382613542565b80935050505090565b60007f01ffc9a7000000000000000000000000000000000000000000000000000000007bffffffffffffffffffffffffffffffffffffffffffffffffffffffff1916827bffffffffffffffffffffffffffffffffffffffffffffffffffffffff1916149050919050565b6127cd6135b4565b565b6127d7611955565b15612817576040517f08c379a000000000000000000000000000000000000000000000000000000000815260040161280e90614b9b565b60405180910390fd5b600073ffffffffffffffffffffffffffffffffffffffff168373ffffffffffffffffffffffffffffffffffffffff161415612887576040517f08c379a000000000000000000000000000000000000000000000000000000000815260040161287e90614c1b565b60405180910390fd5b600073ffffffffffffffffffffffffffffffffffffffff168273ffffffffffffffffffffffffffffffffffffffff1614156128f7576040517f08c379a00000000000000000000000000000000000000000000000000000000081526004016128ee90614c1b565b60405180910390fd5b8061012e60008573ffffffffffffffffffffffffffffffffffffffff1673ffffffffffffffffffffffffffffffffffffffff16815260200190815260200160002060008473ffffffffffffffffffffffffffffffffffffffff1673ffffffffffffffffffffffffffffffffffffffff168152602001908152602001600020819055508173ffffffffffffffffffffffffffffffffffffffff168373ffffffffffffffffffffffffffffffffffffffff167f8c5be1e5ebec7d5bd14f71427d1e84f3dd0314c0f7b2291e5b200ac8c7c3b925836040516129d69190614dfb565b60405180910390a3505050565b600080612a0f7f695672e264d4ed6756d0d51237a754983a90228e98417d3cf96ee34fde578f53612ab1565b90508091505090565b6000612a238261183f565b9050612a30848483613656565b8273ffffffffffffffffffffffffffffffffffffffff168473ffffffffffffffffffffffffffffffffffffffff167fddf252ad1be2c89b69c2b068fc378daa952ba7f163c4a11628f55a4df523b3ef84604051612a8d9190614dfb565b60405180910390a350505050565b60008183612aa99190614fa6565b905092915050565b600081549050919050565b60008183612aca9190614ec5565b905092915050565b8082555050565b60026065541415612b1f576040517f08c379a0000000000000000000000000000000000000000000000000000000008152600401612b1690614d5b565b60405180910390fd5b6002606581905550612b2f611955565b15612b6f576040517f08c379a0000000000000000000000000000000000000000000000000000000008152600401612b6690614b9b565b60405180910390fd5b60008111612bb2576040517f08c379a0000000000000000000000000000000000000000000000000000000008152600401612ba990614b7b565b60405180910390fd5b612bbb3361217d565b811115612bfd576040517f08c379a0000000000000000000000000000000000000000000000000000000008152600401612bf490614bbb565b60405180910390fd5b612c508161013460003373ffffffffffffffffffffffffffffffffffffffff1673ffffffffffffffffffffffffffffffffffffffff16815260200190815260200160002054612abc90919063ffffffff16565b61013460003373ffffffffffffffffffffffffffffffffffffffff1673ffffffffffffffffffffffffffffffffffffffff16815260200190815260200160002081905550612c9f333083613656565b61013360003373ffffffffffffffffffffffffffffffffffffffff1673ffffffffffffffffffffffffffffffffffffffff168152602001908152602001600020604051806040016040528042815260200183815250908060018154018082558091505060019003906000526020600020906002020160009091909190915060008201518160000155602082015181600101555050612da0612d7182612d637f8e8c5cc9e169474309ddd619eade97d9ef92133491020f0fcc80ff18d2efbab8612ab1565b612abc90919063ffffffff16565b7f8e8c5cc9e169474309ddd619eade97d9ef92133491020f0fcc80ff18d2efbab8612ad290919063ffffffff16565b7ff7774b688d56120b783560a913ee60792a73dfd511812b7be5eccf10d08c668933612dcb83611c6d565b604051612dd9929190614914565b60405180910390a1600160658190555050565b612dfd81612df8612ee1565b613a39565b50565b612e0a8282611a5b565b612edd57600160c9600084815260200190815260200160002060000160008373ffffffffffffffffffffffffffffffffffffffff1673ffffffffffffffffffffffffffffffffffffffff16815260200190815260200160002060006101000a81548160ff021916908315150217905550612e82612ee1565b73ffffffffffffffffffffffffffffffffffffffff168173ffffffffffffffffffffffffffffffffffffffff16837f2f8788117e7eff1d82e926ec794901d17c78024a50270940304540a733656f0d60405160405180910390a45b5050565b600033905090565b612ef38282611a5b565b15612fc757600060c9600084815260200190815260200160002060000160008373ffffffffffffffffffffffffffffffffffffffff1673ffffffffffffffffffffffffffffffffffffffff16815260200190815260200160002060006101000a81548160ff021916908315150217905550612f6c612ee1565b73ffffffffffffffffffffffffffffffffffffffff168173ffffffffffffffffffffffffffffffffffffffff16837ff6391f5c32d9c69d2a47ea670b442974b53935d1edc7fd64eb21e047a839171b60405160405180910390a45b5050565b60008183612fd99190614f4c565b905092915050565b60008183612fef9190614f1b565b905092915050565b600061012d60008373ffffffffffffffffffffffffffffffffffffffff1673ffffffffffffffffffffffffffffffffffffffff168152602001908152602001600020549050919050565b613049613ad6565b565b60006130767f3ec28447c1cd3fd5175b5414b8304ec6748559bc446468c819297870cd808f19612ab1565b905090565b6131106130e16130aa7f695672e264d4ed6756d0d51237a754983a90228e98417d3cf96ee34fde578f53612ab1565b6130d37fb1e879708bccec89cde8cf4b6203a37c355c0e51316275a78eff20cae7661ca4612ab1565b612abc90919063ffffffff16565b7fc944fc766850ec0596c07f46bb141ef1c435d1ad2302b76ee656152a20448b36612ad290919063ffffffff16565b565b60008060019054906101000a900460ff16156131895760018260ff16148015613141575061313f30613b79565b155b613180576040517f08c379a000000000000000000000000000000000000000000000000000000000815260040161317790614bdb565b60405180910390fd5b600090506131fd565b8160ff1660008054906101000a900460ff1660ff16106131de576040517f08c379a00000000000000000000000000000000000000000000000000000000081526004016131d590614bdb565b60405180910390fd5b816000806101000a81548160ff021916908360ff160217905550600190505b919050565b600060019054906101000a900460ff16613251576040517f08c379a000000000000000000000000000000000000000000000000000000000815260040161324890614cfb565b60405180910390fd5b61325b8282613b9c565b5050565b6132698282612e00565b5050565b6000613277611955565b156132b7576040517f08c379a00000000000000000000000000000000000000000000000000000000081526004016132ae90614b9b565b60405180910390fd5b600073ffffffffffffffffffffffffffffffffffffffff168373ffffffffffffffffffffffffffffffffffffffff161415613327576040517f08c379a000000000000000000000000000000000000000000000000000000000815260040161331e90614b1b565b60405180910390fd5b600061012d60008573ffffffffffffffffffffffffffffffffffffffff1673ffffffffffffffffffffffffffffffffffffffff16815260200190815260200160002054141561338f57613387600161012f54612abc90919063ffffffff16565b61012f819055505b6133a98261339b611cc2565b612abc90919063ffffffff16565b90506133de817f3ec28447c1cd3fd5175b5414b8304ec6748559bc446468c819297870cd808f19612ad290919063ffffffff16565b6134318161012d60008673ffffffffffffffffffffffffffffffffffffffff1673ffffffffffffffffffffffffffffffffffffffff16815260200190815260200160002054612abc90919063ffffffff16565b61012d60008573ffffffffffffffffffffffffffffffffffffffff1673ffffffffffffffffffffffffffffffffffffffff1681526020019081526020016000208190555092915050565b6134e86134b9826134ab7f695672e264d4ed6756d0d51237a754983a90228e98417d3cf96ee34fde578f53612ab1565b612abc90919063ffffffff16565b7f695672e264d4ed6756d0d51237a754983a90228e98417d3cf96ee34fde578f53612ad290919063ffffffff16565b6134f061307b565b8173ffffffffffffffffffffffffffffffffffffffff167f1439dff93e9e1f47823f730d1ac6d0e67fd98a81c2dc5e02d6b0f7d9af4edc8a826040516135369190614dfb565b60405180910390a25050565b8173ffffffffffffffffffffffffffffffffffffffff16600073ffffffffffffffffffffffffffffffffffffffff167fddf252ad1be2c89b69c2b068fc378daa952ba7f163c4a11628f55a4df523b3ef61359b84611c6d565b6040516135a89190614dfb565b60405180910390a35050565b6135bc611955565b6135fb576040517f08c379a00000000000000000000000000000000000000000000000000000000081526004016135f290614a3b565b60405180910390fd5b6000603360006101000a81548160ff0219169083151502179055507f5db9ee0a495bf2e6ff9c91a7834c1ba4fdd244a5e8aa4e537bd38aeae4b073aa61363f612ee1565b60405161364c91906148f9565b60405180910390a1565b61365e611955565b1561369e576040517f08c379a000000000000000000000000000000000000000000000000000000000815260040161369590614b9b565b60405180910390fd5b600073ffffffffffffffffffffffffffffffffffffffff168373ffffffffffffffffffffffffffffffffffffffff16141561370e576040517f08c379a000000000000000000000000000000000000000000000000000000000815260040161370590614b5b565b60405180910390fd5b600073ffffffffffffffffffffffffffffffffffffffff168273ffffffffffffffffffffffffffffffffffffffff16141561377e576040517f08c379a000000000000000000000000000000000000000000000000000000000815260040161377590614cdb565b60405180910390fd5b8173ffffffffffffffffffffffffffffffffffffffff168373ffffffffffffffffffffffffffffffffffffffff1614156137ed576040517f08c379a00000000000000000000000000000000000000000000000000000000081526004016137e490614b3b565b60405180910390fd5b600061012d60008573ffffffffffffffffffffffffffffffffffffffff1673ffffffffffffffffffffffffffffffffffffffff16815260200190815260200160002054905080821115613875576040517f08c379a000000000000000000000000000000000000000000000000000000000815260040161386c90614d9b565b60405180910390fd5b600061012d60008573ffffffffffffffffffffffffffffffffffffffff1673ffffffffffffffffffffffffffffffffffffffff1681526020019081526020016000205414156138dd576138d5600161012f54612abc90919063ffffffff16565b61012f819055505b6138f08282612a9b90919063ffffffff16565b61012d60008673ffffffffffffffffffffffffffffffffffffffff1673ffffffffffffffffffffffffffffffffffffffff168152602001908152602001600020819055506139878261012d60008673ffffffffffffffffffffffffffffffffffffffff1673ffffffffffffffffffffffffffffffffffffffff16815260200190815260200160002054612abc90919063ffffffff16565b61012d60008573ffffffffffffffffffffffffffffffffffffffff1673ffffffffffffffffffffffffffffffffffffffff16815260200190815260200160002081905550600061012d60008673ffffffffffffffffffffffffffffffffffffffff1673ffffffffffffffffffffffffffffffffffffffff168152602001908152602001600020541415613a3357613a2b600161012f54612a9b90919063ffffffff16565b61012f819055505b50505050565b613a438282611a5b565b613ad257613a688173ffffffffffffffffffffffffffffffffffffffff166014613c1d565b613a768360001c6020613c1d565b604051602001613a879291906148bf565b6040516020818303038152906040526040517f08c379a0000000000000000000000000000000000000000000000000000000008152600401613ac991906149d9565b60405180910390fd5b5050565b613ade611955565b15613b1e576040517f08c379a0000000000000000000000000000000000000000000000000000000008152600401613b1590614b9b565b60405180910390fd5b6001603360006101000a81548160ff0219169083151502179055507f62e78cea01bee320cd4e420270b5ea74000d11b0c9f74754ebdbfc544b05a258613b62612ee1565b604051613b6f91906148f9565b60405180910390a1565b6000808273ffffffffffffffffffffffffffffffffffffffff163b119050919050565b600060019054906101000a900460ff16613beb576040517f08c379a0000000000000000000000000000000000000000000000000000000008152600401613be290614cfb565b60405180910390fd5b8160fe9080519060200190613c01929190613f31565b508060ff9080519060200190613c18929190613f31565b505050565b606060006002836002613c309190614f4c565b613c3a9190614ec5565b67ffffffffffffffff811115613c79577f4e487b7100000000000000000000000000000000000000000000000000000000600052604160045260246000fd5b6040519080825280601f01601f191660200182016040528015613cab5781602001600182028036833780820191505090505b5090507f300000000000000000000000000000000000000000000000000000000000000081600081518110613d09577f4e487b7100000000000000000000000000000000000000000000000000000000600052603260045260246000fd5b60200101907effffffffffffffffffffffffffffffffffffffffffffffffffffffffffffff1916908160001a9053507f780000000000000000000000000000000000000000000000000000000000000081600181518110613d93577f4e487b7100000000000000000000000000000000000000000000000000000000600052603260045260246000fd5b60200101907effffffffffffffffffffffffffffffffffffffffffffffffffffffffffffff1916908160001a90535060006001846002613dd39190614f4c565b613ddd9190614ec5565b90505b6001811115613ec9577f3031323334353637383961626364656600000000000000000000000000000000600f861660108110613e45577f4e487b7100000000000000000000000000000000000000000000000000000000600052603260045260246000fd5b1a60f81b828281518110613e82577f4e487b7100000000000000000000000000000000000000000000000000000000600052603260045260246000fd5b60200101907effffffffffffffffffffffffffffffffffffffffffffffffffffffffffffff1916908160001a905350600485901c945080613ec2906150bc565b9050613de0565b5060008414613f0d576040517f08c379a0000000000000000000000000000000000000000000000000000000008152600401613f0490614a1b565b60405180910390fd5b8091505092915050565b604051806040016040528060008152602001600081525090565b828054613f3d906150e6565b90600052602060002090601f016020900481019282613f5f5760008555613fa6565b82601f10613f7857805160ff1916838001178555613fa6565b82800160010185558215613fa6579182015b82811115613fa5578251825591602001919060010190613f8a565b5b509050613fb39190613fb7565b5090565b5b80821115613fd0576000816000905550600101613fb8565b5090565b600081359050613fe381615832565b92915050565b600081359050613ff881615849565b92915050565b60008135905061400d81615860565b92915050565b60008135905061402281615877565b92915050565b60006020828403121561403a57600080fd5b600061404884828501613fd4565b91505092915050565b6000806040838503121561406457600080fd5b600061407285828601613fd4565b925050602061408385828601613fd4565b9150509250929050565b6000806000606084860312156140a257600080fd5b60006140b086828701613fd4565b93505060206140c186828701613fd4565b92505060406140d286828701614013565b9150509250925092565b600080604083850312156140ef57600080fd5b60006140fd85828601613fd4565b925050602061410e85828601614013565b9150509250929050565b60008060006060848603121561412d57600080fd5b600061413b86828701613fd4565b935050602061414c86828701614013565b925050604061415d86828701614013565b9150509250925092565b60006020828403121561417957600080fd5b600061418784828501613fe9565b91505092915050565b600080604083850312156141a357600080fd5b60006141b185828601613fe9565b92505060206141c285828601613fd4565b9150509250929050565b6000602082840312156141de57600080fd5b60006141ec84828501613ffe565b91505092915050565b60006020828403121561420757600080fd5b600061421584828501614013565b91505092915050565b6000806040838503121561423157600080fd5b600061423f85828601614013565b925050602061425085828601614013565b9150509250929050565b6000614266838361484e565b60408301905092915050565b61427b81614fda565b82525050565b600061428c82614e6a565b6142968185614e8d565b93506142a183614e5a565b8060005b838110156142d25781516142b9888261425a565b97506142c483614e80565b9250506001810190506142a5565b5085935050505092915050565b6142e881614fec565b82525050565b6142f781614ff8565b82525050565b61430681615065565b82525050565b61431581615077565b82525050565b600061432682614e75565b6143308185614ea9565b9350614340818560208601615089565b614349816151ee565b840191505092915050565b600061435f82614e75565b6143698185614eba565b9350614379818560208601615089565b80840191505092915050565b6000614392601483614ea9565b915061439d826151ff565b602082019050919050565b60006143b5602083614ea9565b91506143c082615228565b602082019050919050565b60006143d8601483614ea9565b91506143e382615251565b602082019050919050565b60006143fb601883614ea9565b91506144068261527a565b602082019050919050565b600061441e600e83614ea9565b9150614429826152a3565b602082019050919050565b6000614441602783614ea9565b915061444c826152cc565b604082019050919050565b6000614464601b83614ea9565b915061446f8261531b565b602082019050919050565b6000614487601483614ea9565b915061449282615344565b602082019050919050565b60006144aa601983614ea9565b91506144b58261536d565b602082019050919050565b60006144cd601b83614ea9565b91506144d882615396565b602082019050919050565b60006144f0601083614ea9565b91506144fb826153bf565b602082019050919050565b6000614513602183614ea9565b915061451e826153e8565b604082019050919050565b6000614536601483614ea9565b915061454182615437565b602082019050919050565b6000614559601083614ea9565b915061456482615460565b602082019050919050565b600061457c601d83614ea9565b915061458782615489565b602082019050919050565b600061459f602e83614ea9565b91506145aa826154b2565b604082019050919050565b60006145c2601a83614ea9565b91506145cd82615501565b602082019050919050565b60006145e5601d83614ea9565b91506145f08261552a565b602082019050919050565b6000614608601a83614ea9565b915061461382615553565b602082019050919050565b600061462b602083614ea9565b91506146368261557c565b602082019050919050565b600061464e600f83614ea9565b9150614659826155a5565b602082019050919050565b6000614671601383614ea9565b915061467c826155ce565b602082019050919050565b6000614694600083614e9e565b915061469f826155f7565b600082019050919050565b60006146b7600f83614ea9565b91506146c2826155fa565b602082019050919050565b60006146da601f83614ea9565b91506146e582615623565b602082019050919050565b60006146fd602b83614ea9565b91506147088261564c565b604082019050919050565b6000614720600c83614ea9565b915061472b8261569b565b602082019050919050565b6000614743601783614eba565b915061474e826156c4565b601782019050919050565b6000614766600883614ea9565b9150614771826156ed565b602082019050919050565b6000614789601f83614ea9565b915061479482615716565b602082019050919050565b60006147ac601783614ea9565b91506147b78261573f565b602082019050919050565b60006147cf601183614eba565b91506147da82615768565b601182019050919050565b60006147f2601883614ea9565b91506147fd82615791565b602082019050919050565b6000614815602f83614ea9565b9150614820826157ba565b604082019050919050565b6000614838601183614ea9565b915061484382615809565b602082019050919050565b604082016000820151614864600085018261487d565b506020820151614877602085018261487d565b50505050565b6148868161504e565b82525050565b6148958161504e565b82525050565b6148a481615058565b82525050565b60006148b582614687565b9150819050919050565b60006148ca82614736565b91506148d68285614354565b91506148e1826147c2565b91506148ed8284614354565b91508190509392505050565b600060208201905061490e6000830184614272565b92915050565b60006040820190506149296000830185614272565b614936602083018461488c565b9392505050565b600060208201905081810360008301526149578184614281565b905092915050565b600060208201905061497460008301846142df565b92915050565b600060208201905061498f60008301846142ee565b92915050565b60006040820190506149aa60008301856142fd565b6149b7602083018461488c565b9392505050565b60006020820190506149d3600083018461430c565b92915050565b600060208201905081810360008301526149f3818461431b565b905092915050565b60006020820190508181036000830152614a1481614385565b9050919050565b60006020820190508181036000830152614a34816143a8565b9050919050565b60006020820190508181036000830152614a54816143cb565b9050919050565b60006020820190508181036000830152614a74816143ee565b9050919050565b60006020820190508181036000830152614a9481614411565b9050919050565b60006020820190508181036000830152614ab481614434565b9050919050565b60006020820190508181036000830152614ad481614457565b9050919050565b60006020820190508181036000830152614af48161447a565b9050919050565b60006020820190508181036000830152614b148161449d565b9050919050565b60006020820190508181036000830152614b34816144c0565b9050919050565b60006020820190508181036000830152614b54816144e3565b9050919050565b60006020820190508181036000830152614b7481614506565b9050919050565b60006020820190508181036000830152614b9481614529565b9050919050565b60006020820190508181036000830152614bb48161454c565b9050919050565b60006020820190508181036000830152614bd48161456f565b9050919050565b60006020820190508181036000830152614bf481614592565b9050919050565b60006020820190508181036000830152614c14816145b5565b9050919050565b60006020820190508181036000830152614c34816145d8565b9050919050565b60006020820190508181036000830152614c54816145fb565b9050919050565b60006020820190508181036000830152614c748161461e565b9050919050565b60006020820190508181036000830152614c9481614641565b9050919050565b60006020820190508181036000830152614cb481614664565b9050919050565b60006020820190508181036000830152614cd4816146aa565b9050919050565b60006020820190508181036000830152614cf4816146cd565b9050919050565b60006020820190508181036000830152614d14816146f0565b9050919050565b60006020820190508181036000830152614d3481614713565b9050919050565b60006020820190508181036000830152614d5481614759565b9050919050565b60006020820190508181036000830152614d748161477c565b9050919050565b60006020820190508181036000830152614d948161479f565b9050919050565b60006020820190508181036000830152614db4816147e5565b9050919050565b60006020820190508181036000830152614dd481614808565b9050919050565b60006020820190508181036000830152614df48161482b565b9050919050565b6000602082019050614e10600083018461488c565b92915050565b6000604082019050614e2b600083018561488c565b614e38602083018461488c565b9392505050565b6000602082019050614e54600083018461489b565b92915050565b6000819050602082019050919050565b600081519050919050565b600081519050919050565b6000602082019050919050565b600082825260208201905092915050565b600081905092915050565b600082825260208201905092915050565b600081905092915050565b6000614ed08261504e565b9150614edb8361504e565b9250827fffffffffffffffffffffffffffffffffffffffffffffffffffffffffffffffff03821115614f1057614f0f615161565b5b828201905092915050565b6000614f268261504e565b9150614f318361504e565b925082614f4157614f40615190565b5b828204905092915050565b6000614f578261504e565b9150614f628361504e565b9250817fffffffffffffffffffffffffffffffffffffffffffffffffffffffffffffffff0483118215151615614f9b57614f9a615161565b5b828202905092915050565b6000614fb18261504e565b9150614fbc8361504e565b925082821015614fcf57614fce615161565b5b828203905092915050565b6000614fe58261502e565b9050919050565b60008115159050919050565b6000819050919050565b60007fffffffff0000000000000000000000000000000000000000000000000000000082169050919050565b600073ffffffffffffffffffffffffffffffffffffffff82169050919050565b6000819050919050565b600060ff82169050919050565b60006150708261504e565b9050919050565b600061508282615058565b9050919050565b60005b838110156150a757808201518184015260208101905061508c565b838111156150b6576000848401525b50505050565b60006150c78261504e565b915060008214156150db576150da615161565b5b600182039050919050565b600060028204905060018216806150fe57607f821691505b60208210811415615112576151116151bf565b5b50919050565b60006151238261504e565b91507fffffffffffffffffffffffffffffffffffffffffffffffffffffffffffffffff82141561515657615155615161565b5b600182019050919050565b7f4e487b7100000000000000000000000000000000000000000000000000000000600052601160045260246000fd5b7f4e487b7100000000000000000000000000000000000000000000000000000000600052601260045260246000fd5b7f4e487b7100000000000000000000000000000000000000000000000000000000600052602260045260246000fd5b6000601f19601f8301169050919050565b7f4d4953534e4720524551554952454420524f4c45000000000000000000000000600082015250565b7f537472696e67733a20686578206c656e67746820696e73756666696369656e74600082015250565b7f5061757361626c653a206e6f7420706175736564000000000000000000000000600082015250565b7f5354415254204d555354204245204245464f524520454e440000000000000000600082015250565b7f4e4f4e5f454d5054595f44415441000000000000000000000000000000000000600082015250565b7f5472616e7366657220416d6f756e7420457863656564732057616c6c6574204260008201527f616c6c616e636500000000000000000000000000000000000000000000000000602082015250565b7f4e45454420412057414c4c455420544f205245424153452042524f0000000000600082015250565b7f41564158205452414e53464552204641494c4544000000000000000000000000600082015250565b7f41414141414e44204e4f5045204e494345205452592054484f00000000000000600082015250565b7f4e4f204d494e5420544f20544845205a45524f20414444524553530000000000600082015250565b7f4e4f2053454c46205452414e5346455200000000000000000000000000000000600082015250565b7f4e4f205452414e534645522046524f4d20544845205a45524f2041444452455360008201527f5300000000000000000000000000000000000000000000000000000000000000602082015250565b7f43414e4e4f545f57495448445241575f5a45524f000000000000000000000000600082015250565b7f5061757361626c653a2070617573656400000000000000000000000000000000600082015250565b7f57495448445241575f455843454544535f4f574e45445f534841524553000000600082015250565b7f496e697469616c697a61626c653a20636f6e747261637420697320616c72656160008201527f647920696e697469616c697a6564000000000000000000000000000000000000602082015250565b7f414444524553532049532057524f4e47204d5920465249454e44000000000000600082015250565b7f4e4f20415050524f56414c2046524f4d205a45524f2041444452455353000000600082015250565b7f43414e4e4f542044454352454153452042454c4f57205a45524f000000000000600082015250565b7f56414c554520444f4553204e4f5420455155414c20414d4f554e54204f574544600082015250565b7f4841204e49434520545259204255440000000000000000000000000000000000600082015250565b7f494e444558204f5554204f4620424f554e445300000000000000000000000000600082015250565b50565b7f4465706f7369745f69735f6e756c6c0000000000000000000000000000000000600082015250565b7f4e4f205452414e5346455220544f20544845205a45524f204144445245535300600082015250565b7f496e697469616c697a61626c653a20636f6e7472616374206973206e6f74206960008201527f6e697469616c697a696e67000000000000000000000000000000000000000000602082015250565b7f4d4159424520544d52573f3f0000000000000000000000000000000000000000600082015250565b7f416363657373436f6e74726f6c3a206163636f756e7420000000000000000000600082015250565b7f4e4f2056414c5545000000000000000000000000000000000000000000000000600082015250565b7f5265656e7472616e637947756172643a207265656e7472616e742063616c6c00600082015250565b7f4d41594245205448452057524f4e472057414c4c45543f000000000000000000600082015250565b7f206973206d697373696e6720726f6c6520000000000000000000000000000000600082015250565b7f5452414e5346455220455843454544532042414c414e43450000000000000000600082015250565b7f416363657373436f6e74726f6c3a2063616e206f6e6c792072656e6f756e636560008201527f20726f6c657320666f722073656c660000000000000000000000000000000000602082015250565b7f4d484d204e4f542048415050454e494e47000000000000000000000000000000600082015250565b61583b81614fda565b811461584657600080fd5b50565b61585281614ff8565b811461585d57600080fd5b50565b61586981615002565b811461587457600080fd5b50565b6158808161504e565b811461588b57600080fd5b5056fea2646970667358221220a5b54ff0c94658b8ca01907b302c7f54d2e199a9d5e990fec5cb398fb0cf56d364736f6c63430008030033",
  "linkReferences": {},
  "deployedLinkReferences": {}
}